{
  "_format": "hh-sol-artifact-1",
  "contractName": "EtridPoly",
  "sourceName": "contracts/EtridPoly.sol",
  "abi": [
    {
      "inputs": [
        {
          "internalType": "address",
          "name": "initialOwner",
          "type": "address"
        }
      ],
      "stateMutability": "nonpayable",
      "type": "constructor"
    },
    {
      "inputs": [
        {
          "internalType": "address",
          "name": "spender",
          "type": "address"
        },
        {
          "internalType": "uint256",
          "name": "allowance",
          "type": "uint256"
        },
        {
          "internalType": "uint256",
          "name": "needed",
          "type": "uint256"
        }
      ],
      "name": "ERC20InsufficientAllowance",
      "type": "error"
    },
    {
      "inputs": [
        {
          "internalType": "address",
          "name": "sender",
          "type": "address"
        },
        {
          "internalType": "uint256",
          "name": "balance",
          "type": "uint256"
        },
        {
          "internalType": "uint256",
          "name": "needed",
          "type": "uint256"
        }
      ],
      "name": "ERC20InsufficientBalance",
      "type": "error"
    },
    {
      "inputs": [
        {
          "internalType": "address",
          "name": "approver",
          "type": "address"
        }
      ],
      "name": "ERC20InvalidApprover",
      "type": "error"
    },
    {
      "inputs": [
        {
          "internalType": "address",
          "name": "receiver",
          "type": "address"
        }
      ],
      "name": "ERC20InvalidReceiver",
      "type": "error"
    },
    {
      "inputs": [
        {
          "internalType": "address",
          "name": "sender",
          "type": "address"
        }
      ],
      "name": "ERC20InvalidSender",
      "type": "error"
    },
    {
      "inputs": [
        {
          "internalType": "address",
          "name": "spender",
          "type": "address"
        }
      ],
      "name": "ERC20InvalidSpender",
      "type": "error"
    },
    {
      "inputs": [
        {
          "internalType": "address",
          "name": "owner",
          "type": "address"
        }
      ],
      "name": "OwnableInvalidOwner",
      "type": "error"
    },
    {
      "inputs": [
        {
          "internalType": "address",
          "name": "account",
          "type": "address"
        }
      ],
      "name": "OwnableUnauthorizedAccount",
      "type": "error"
    },
    {
      "anonymous": false,
      "inputs": [
        {
          "indexed": true,
          "internalType": "address",
          "name": "owner",
          "type": "address"
        },
        {
          "indexed": true,
          "internalType": "address",
          "name": "spender",
          "type": "address"
        },
        {
          "indexed": false,
          "internalType": "uint256",
          "name": "value",
          "type": "uint256"
        }
      ],
      "name": "Approval",
      "type": "event"
    },
    {
      "anonymous": false,
      "inputs": [
        {
          "indexed": true,
          "internalType": "address",
          "name": "from",
          "type": "address"
        },
        {
          "indexed": false,
          "internalType": "uint256",
          "name": "amount",
          "type": "uint256"
        },
        {
          "indexed": false,
          "internalType": "string",
          "name": "destinationChain",
          "type": "string"
        }
      ],
      "name": "BridgeBurn",
      "type": "event"
    },
    {
      "anonymous": false,
      "inputs": [
        {
          "indexed": true,
          "internalType": "address",
          "name": "to",
          "type": "address"
        },
        {
          "indexed": false,
          "internalType": "uint256",
          "name": "amount",
          "type": "uint256"
        },
        {
          "indexed": false,
          "internalType": "string",
          "name": "sourceChain",
          "type": "string"
        }
      ],
      "name": "BridgeMint",
      "type": "event"
    },
    {
      "anonymous": false,
      "inputs": [
        {
          "indexed": true,
          "internalType": "address",
          "name": "oldBridge",
          "type": "address"
        },
        {
          "indexed": true,
          "internalType": "address",
          "name": "newBridge",
          "type": "address"
        }
      ],
      "name": "CrossChainBridgeUpdated",
      "type": "event"
    },
    {
      "anonymous": false,
      "inputs": [
        {
          "indexed": true,
          "internalType": "address",
          "name": "previousOwner",
          "type": "address"
        },
        {
          "indexed": true,
          "internalType": "address",
          "name": "newOwner",
          "type": "address"
        }
      ],
      "name": "OwnershipTransferred",
      "type": "event"
    },
    {
      "anonymous": false,
      "inputs": [
        {
          "indexed": true,
          "internalType": "address",
          "name": "oldBridge",
          "type": "address"
        },
        {
          "indexed": true,
          "internalType": "address",
          "name": "newBridge",
          "type": "address"
        }
      ],
      "name": "PolygonBridgeUpdated",
      "type": "event"
    },
    {
      "anonymous": false,
      "inputs": [
        {
          "indexed": true,
          "internalType": "address",
          "name": "from",
          "type": "address"
        },
        {
          "indexed": true,
          "internalType": "address",
          "name": "to",
          "type": "address"
        },
        {
          "indexed": false,
          "internalType": "uint256",
          "name": "value",
          "type": "uint256"
        }
      ],
      "name": "Transfer",
      "type": "event"
    },
    {
      "inputs": [],
      "name": "MAX_SUPPLY",
      "outputs": [
        {
          "internalType": "uint256",
          "name": "",
          "type": "uint256"
        }
      ],
      "stateMutability": "view",
      "type": "function"
    },
    {
      "inputs": [
        {
          "internalType": "address",
          "name": "owner",
          "type": "address"
        },
        {
          "internalType": "address",
          "name": "spender",
          "type": "address"
        }
      ],
      "name": "allowance",
      "outputs": [
        {
          "internalType": "uint256",
          "name": "",
          "type": "uint256"
        }
      ],
      "stateMutability": "view",
      "type": "function"
    },
    {
      "inputs": [
        {
          "internalType": "address",
          "name": "spender",
          "type": "address"
        },
        {
          "internalType": "uint256",
          "name": "value",
          "type": "uint256"
        }
      ],
      "name": "approve",
      "outputs": [
        {
          "internalType": "bool",
          "name": "",
          "type": "bool"
        }
      ],
      "stateMutability": "nonpayable",
      "type": "function"
    },
    {
      "inputs": [
        {
          "internalType": "address",
          "name": "account",
          "type": "address"
        }
      ],
      "name": "balanceOf",
      "outputs": [
        {
          "internalType": "uint256",
          "name": "",
          "type": "uint256"
        }
      ],
      "stateMutability": "view",
      "type": "function"
    },
    {
      "inputs": [
        {
          "internalType": "address",
          "name": "from",
          "type": "address"
        },
        {
          "internalType": "uint256",
          "name": "amount",
          "type": "uint256"
        },
        {
          "internalType": "string",
          "name": "destinationChain",
          "type": "string"
        }
      ],
      "name": "bridgeBurn",
      "outputs": [],
      "stateMutability": "nonpayable",
      "type": "function"
    },
    {
      "inputs": [
        {
          "internalType": "address",
          "name": "to",
          "type": "address"
        },
        {
          "internalType": "uint256",
          "name": "amount",
          "type": "uint256"
        },
        {
          "internalType": "string",
          "name": "sourceChain",
          "type": "string"
        }
      ],
      "name": "bridgeMint",
      "outputs": [],
      "stateMutability": "nonpayable",
      "type": "function"
    },
    {
      "inputs": [
        {
          "internalType": "uint256",
          "name": "value",
          "type": "uint256"
        }
      ],
      "name": "burn",
      "outputs": [],
      "stateMutability": "nonpayable",
      "type": "function"
    },
    {
      "inputs": [
        {
          "internalType": "address",
          "name": "account",
          "type": "address"
        },
        {
          "internalType": "uint256",
          "name": "value",
          "type": "uint256"
        }
      ],
      "name": "burnFrom",
      "outputs": [],
      "stateMutability": "nonpayable",
      "type": "function"
    },
    {
      "inputs": [],
      "name": "crossChainBridge",
      "outputs": [
        {
          "internalType": "address",
          "name": "",
          "type": "address"
        }
      ],
      "stateMutability": "view",
      "type": "function"
    },
    {
      "inputs": [],
      "name": "decimals",
      "outputs": [
        {
          "internalType": "uint8",
          "name": "",
          "type": "uint8"
        }
      ],
      "stateMutability": "view",
      "type": "function"
    },
    {
      "inputs": [],
      "name": "emergencyPause",
      "outputs": [],
      "stateMutability": "nonpayable",
      "type": "function"
    },
    {
      "inputs": [],
      "name": "name",
      "outputs": [
        {
          "internalType": "string",
          "name": "",
          "type": "string"
        }
      ],
      "stateMutability": "view",
      "type": "function"
    },
    {
      "inputs": [],
      "name": "owner",
      "outputs": [
        {
          "internalType": "address",
          "name": "",
          "type": "address"
        }
      ],
      "stateMutability": "view",
      "type": "function"
    },
    {
      "inputs": [],
      "name": "polygonBridge",
      "outputs": [
        {
          "internalType": "address",
          "name": "",
          "type": "address"
        }
      ],
      "stateMutability": "view",
      "type": "function"
    },
    {
      "inputs": [],
      "name": "renounceOwnership",
      "outputs": [],
      "stateMutability": "nonpayable",
      "type": "function"
    },
    {
      "inputs": [
        {
          "internalType": "address",
          "name": "_crossChainBridge",
          "type": "address"
        }
      ],
      "name": "setCrossChainBridge",
      "outputs": [],
      "stateMutability": "nonpayable",
      "type": "function"
    },
    {
      "inputs": [
        {
          "internalType": "address",
          "name": "_polygonBridge",
          "type": "address"
        }
      ],
      "name": "setPolygonBridge",
      "outputs": [],
      "stateMutability": "nonpayable",
      "type": "function"
    },
    {
      "inputs": [],
      "name": "symbol",
      "outputs": [
        {
          "internalType": "string",
          "name": "",
          "type": "string"
        }
      ],
      "stateMutability": "view",
      "type": "function"
    },
    {
      "inputs": [],
      "name": "totalSupply",
      "outputs": [
        {
          "internalType": "uint256",
          "name": "",
          "type": "uint256"
        }
      ],
      "stateMutability": "view",
      "type": "function"
    },
    {
      "inputs": [
        {
          "internalType": "address",
          "name": "to",
          "type": "address"
        },
        {
          "internalType": "uint256",
          "name": "value",
          "type": "uint256"
        }
      ],
      "name": "transfer",
      "outputs": [
        {
          "internalType": "bool",
          "name": "",
          "type": "bool"
        }
      ],
      "stateMutability": "nonpayable",
      "type": "function"
    },
    {
      "inputs": [
        {
          "internalType": "address",
          "name": "from",
          "type": "address"
        },
        {
          "internalType": "address",
          "name": "to",
          "type": "address"
        },
        {
          "internalType": "uint256",
          "name": "value",
          "type": "uint256"
        }
      ],
      "name": "transferFrom",
      "outputs": [
        {
          "internalType": "bool",
          "name": "",
          "type": "bool"
        }
      ],
      "stateMutability": "nonpayable",
      "type": "function"
    },
    {
      "inputs": [
        {
          "internalType": "address",
          "name": "newOwner",
          "type": "address"
        }
      ],
      "name": "transferOwnership",
      "outputs": [],
      "stateMutability": "nonpayable",
      "type": "function"
    }
  ],
  "bytecode": "0x60806040523480156200001157600080fd5b50604051620013d6380380620013d68339810160408190526200003491620002b0565b806040518060400160405280600681526020016530e2dd1c9a5960d21b8152506040518060400160405280600481526020016361c5aa2960e11b815250816003908162000082919062000387565b50600462000091828262000387565b5050506001600160a01b038116620000c457604051631e4fbdf760e01b8152600060048201526024015b60405180910390fd5b620000cf81620000ed565b50620000e68169152d02c7e14af68000006200013f565b506200047b565b600580546001600160a01b038381166001600160a01b0319831681179093556040519116919082907f8be0079c531659141344cd1fd0a4f28419497f9722a3daafe3b4186f6b6457e090600090a35050565b6001600160a01b0382166200016b5760405163ec442f0560e01b815260006004820152602401620000bb565b62000179600083836200017d565b5050565b6001600160a01b038316620001ac578060026000828254620001a0919062000453565b90915550620002209050565b6001600160a01b03831660009081526020819052604090205481811015620002015760405163391434e360e21b81526001600160a01b03851660048201526024810182905260448101839052606401620000bb565b6001600160a01b03841660009081526020819052604090209082900390555b6001600160a01b0382166200023e576002805482900390556200025d565b6001600160a01b03821660009081526020819052604090208054820190555b816001600160a01b0316836001600160a01b03167fddf252ad1be2c89b69c2b068fc378daa952ba7f163c4a11628f55a4df523b3ef83604051620002a391815260200190565b60405180910390a3505050565b600060208284031215620002c357600080fd5b81516001600160a01b0381168114620002db57600080fd5b9392505050565b634e487b7160e01b600052604160045260246000fd5b600181811c908216806200030d57607f821691505b6020821081036200032e57634e487b7160e01b600052602260045260246000fd5b50919050565b601f8211156200038257600081815260208120601f850160051c810160208610156200035d5750805b601f850160051c820191505b818110156200037e5782815560010162000369565b5050505b505050565b81516001600160401b03811115620003a357620003a3620002e2565b620003bb81620003b48454620002f8565b8462000334565b602080601f831160018114620003f35760008415620003da5750858301515b600019600386901b1c1916600185901b1785556200037e565b600085815260208120601f198616915b82811015620004245788860151825594840194600190910190840162000403565b5085821015620004435787850151600019600388901b60f8161c191681555b5050505050600190811b01905550565b808201808211156200047557634e487b7160e01b600052601160045260246000fd5b92915050565b610f4b806200048b6000396000f3fe608060405234801561001057600080fd5b50600436106101425760003560e01c806370a08231116100b857806395d89b411161007c57806395d89b41146102a5578063a9059cbb146102ad578063b3e26566146102c0578063dd62ed3e146102d3578063e8b9d93c1461030c578063f2fde38b1461031f57600080fd5b806370a082311461023d578063715018a61461026657806379cc67901461026e5780637f0ebb03146102815780638da5cb5b1461029457600080fd5b8063252d0c361161010a578063252d0c36146101d8578063313ce567146101ed57806332cb6b0c146101fc57806342966c681461020f57806351858e271461022257806367d74de21461022a57600080fd5b806306fdde0314610147578063095ea7b3146101655780630d9170b21461018857806318160ddd146101b357806323b872dd146101c5575b600080fd5b61014f610332565b60405161015c9190610cb5565b60405180910390f35b610178610173366004610ceb565b6103c4565b604051901515815260200161015c565b60065461019b906001600160a01b031681565b6040516001600160a01b03909116815260200161015c565b6002545b60405190815260200161015c565b6101786101d3366004610d15565b6103de565b6101eb6101e6366004610d51565b610402565b005b6040516012815260200161015c565b6101b76b033b2e3c9fd0803ce800000081565b6101eb61021d366004610d6c565b6104b7565b6101eb6104c4565b6101eb610238366004610d9b565b6104ce565b6101b761024b366004610d51565b6001600160a01b031660009081526020819052604090205490565b6101eb610649565b6101eb61027c366004610ceb565b61065b565b6101eb61028f366004610d51565b610674565b6005546001600160a01b031661019b565b61014f610724565b6101786102bb366004610ceb565b610733565b60075461019b906001600160a01b031681565b6101b76102e1366004610e66565b6001600160a01b03918216600090815260016020908152604080832093909416825291909152205490565b6101eb61031a366004610d9b565b610741565b6101eb61032d366004610d51565b61085a565b60606003805461034190610e99565b80601f016020809104026020016040519081016040528092919081815260200182805461036d90610e99565b80156103ba5780601f1061038f576101008083540402835291602001916103ba565b820191906000526020600020905b81548152906001019060200180831161039d57829003601f168201915b5050505050905090565b6000336103d2818585610895565b60019150505b92915050565b6000336103ec8582856108a7565b6103f7858585610926565b506001949350505050565b61040a610985565b6001600160a01b0381166104655760405162461bcd60e51b815260206004820152601d60248201527f4272696467652063616e6e6f74206265207a65726f206164647265737300000060448201526064015b60405180910390fd5b600680546001600160a01b038381166001600160a01b0319831681179093556040519116919082907f5e6447726e79ce62d0edaa305554b711b4251334916190c086dde64ab965fd2090600090a35050565b6104c133826109b2565b50565b6104cc610985565b565b6006546001600160a01b03163314806104f157506007546001600160a01b031633145b61053d5760405162461bcd60e51b815260206004820152601f60248201527f4f6e6c7920617574686f72697a6564206272696467652063616e206d696e7400604482015260640161045c565b6b033b2e3c9fd0803ce80000008261055460025490565b61055e9190610ed3565b11156105a15760405162461bcd60e51b815260206004820152601260248201527145786365656473206d617820737570706c7960701b604482015260640161045c565b6001600160a01b0383166105f75760405162461bcd60e51b815260206004820152601b60248201527f43616e6e6f74206d696e7420746f207a65726f20616464726573730000000000604482015260640161045c565b61060183836109e8565b826001600160a01b03167f53f34adc5274839ae8004dad53bf3b47baa078f68e80266e142092775593f3df838360405161063c929190610ef4565b60405180910390a2505050565b610651610985565b6104cc6000610a1e565b6106668233836108a7565b61067082826109b2565b5050565b61067c610985565b6001600160a01b0381166106d25760405162461bcd60e51b815260206004820152601d60248201527f4272696467652063616e6e6f74206265207a65726f2061646472657373000000604482015260640161045c565b600780546001600160a01b038381166001600160a01b0319831681179093556040519116919082907f26614889656305339d1289ee8109f54e1f109d4adf69969a90397f7985e2bba190600090a35050565b60606004805461034190610e99565b6000336103d2818585610926565b6006546001600160a01b031633148061076457506007546001600160a01b031633145b6107b05760405162461bcd60e51b815260206004820152601f60248201527f4f6e6c7920617574686f72697a6564206272696467652063616e206275726e00604482015260640161045c565b816107d0846001600160a01b031660009081526020819052604090205490565b10156108155760405162461bcd60e51b8152602060048201526014602482015273496e73756666696369656e742062616c616e636560601b604482015260640161045c565b61081f83836109b2565b826001600160a01b03167f35e2167161db5b6e560d143c51984d248beb108dc517fb4b51c4808cc4498811838360405161063c929190610ef4565b610862610985565b6001600160a01b03811661088c57604051631e4fbdf760e01b81526000600482015260240161045c565b6104c181610a1e565b6108a28383836001610a70565b505050565b6001600160a01b03838116600090815260016020908152604080832093861683529290522054600019811015610920578181101561091157604051637dc7a0d960e11b81526001600160a01b0384166004820152602481018290526044810183905260640161045c565b61092084848484036000610a70565b50505050565b6001600160a01b03831661095057604051634b637e8f60e11b81526000600482015260240161045c565b6001600160a01b03821661097a5760405163ec442f0560e01b81526000600482015260240161045c565b6108a2838383610b45565b6005546001600160a01b031633146104cc5760405163118cdaa760e01b815233600482015260240161045c565b6001600160a01b0382166109dc57604051634b637e8f60e11b81526000600482015260240161045c565b61067082600083610b45565b6001600160a01b038216610a125760405163ec442f0560e01b81526000600482015260240161045c565b61067060008383610b45565b600580546001600160a01b038381166001600160a01b0319831681179093556040519116919082907f8be0079c531659141344cd1fd0a4f28419497f9722a3daafe3b4186f6b6457e090600090a35050565b6001600160a01b038416610a9a5760405163e602df0560e01b81526000600482015260240161045c565b6001600160a01b038316610ac457604051634a1406b160e11b81526000600482015260240161045c565b6001600160a01b038085166000908152600160209081526040808320938716835292905220829055801561092057826001600160a01b0316846001600160a01b03167f8c5be1e5ebec7d5bd14f71427d1e84f3dd0314c0f7b2291e5b200ac8c7c3b92584604051610b3791815260200190565b60405180910390a350505050565b6001600160a01b038316610b70578060026000828254610b659190610ed3565b90915550610be29050565b6001600160a01b03831660009081526020819052604090205481811015610bc35760405163391434e360e21b81526001600160a01b0385166004820152602481018290526044810183905260640161045c565b6001600160a01b03841660009081526020819052604090209082900390555b6001600160a01b038216610bfe57600280548290039055610c1d565b6001600160a01b03821660009081526020819052604090208054820190555b816001600160a01b0316836001600160a01b03167fddf252ad1be2c89b69c2b068fc378daa952ba7f163c4a11628f55a4df523b3ef83604051610c6291815260200190565b60405180910390a3505050565b6000815180845260005b81811015610c9557602081850181015186830182015201610c79565b506000602082860101526020601f19601f83011685010191505092915050565b602081526000610cc86020830184610c6f565b9392505050565b80356001600160a01b0381168114610ce657600080fd5b919050565b60008060408385031215610cfe57600080fd5b610d0783610ccf565b946020939093013593505050565b600080600060608486031215610d2a57600080fd5b610d3384610ccf565b9250610d4160208501610ccf565b9150604084013590509250925092565b600060208284031215610d6357600080fd5b610cc882610ccf565b600060208284031215610d7e57600080fd5b5035919050565b634e487b7160e01b600052604160045260246000fd5b600080600060608486031215610db057600080fd5b610db984610ccf565b925060208401359150604084013567ffffffffffffffff80821115610ddd57600080fd5b818601915086601f830112610df157600080fd5b813581811115610e0357610e03610d85565b604051601f8201601f19908116603f01168101908382118183101715610e2b57610e2b610d85565b81604052828152896020848701011115610e4457600080fd5b8260208601602083013760006020848301015280955050505050509250925092565b60008060408385031215610e7957600080fd5b610e8283610ccf565b9150610e9060208401610ccf565b90509250929050565b600181811c90821680610ead57607f821691505b602082108103610ecd57634e487b7160e01b600052602260045260246000fd5b50919050565b808201808211156103d857634e487b7160e01b600052601160045260246000fd5b828152604060208201526000610f0d6040830184610c6f565b94935050505056fea26469706673582212206e3ba1834009165a65b07382ddf546e479bb3932095884e4579423dd76053af964736f6c63430008140033",
  "linkReferences": {},
  "deployedLinkReferences": {}
}