{
  "_format": "hh-sol-artifact-1",
  "contractName": "EtridBSC",
  "sourceName": "contracts/EtridBSC.sol",
  "abi": [
    {
      "inputs": [],
      "stateMutability": "nonpayable",
      "type": "constructor"
    },
    {
      "inputs": [
        {
          "internalType": "address",
          "name": "spender",
          "type": "address"
        },
        {
          "internalType": "uint256",
          "name": "allowance",
          "type": "uint256"
        },
        {
          "internalType": "uint256",
          "name": "needed",
          "type": "uint256"
        }
      ],
      "name": "ERC20InsufficientAllowance",
      "type": "error"
    },
    {
      "inputs": [
        {
          "internalType": "address",
          "name": "sender",
          "type": "address"
        },
        {
          "internalType": "uint256",
          "name": "balance",
          "type": "uint256"
        },
        {
          "internalType": "uint256",
          "name": "needed",
          "type": "uint256"
        }
      ],
      "name": "ERC20InsufficientBalance",
      "type": "error"
    },
    {
      "inputs": [
        {
          "internalType": "address",
          "name": "approver",
          "type": "address"
        }
      ],
      "name": "ERC20InvalidApprover",
      "type": "error"
    },
    {
      "inputs": [
        {
          "internalType": "address",
          "name": "receiver",
          "type": "address"
        }
      ],
      "name": "ERC20InvalidReceiver",
      "type": "error"
    },
    {
      "inputs": [
        {
          "internalType": "address",
          "name": "sender",
          "type": "address"
        }
      ],
      "name": "ERC20InvalidSender",
      "type": "error"
    },
    {
      "inputs": [
        {
          "internalType": "address",
          "name": "spender",
          "type": "address"
        }
      ],
      "name": "ERC20InvalidSpender",
      "type": "error"
    },
    {
      "inputs": [
        {
          "internalType": "address",
          "name": "owner",
          "type": "address"
        }
      ],
      "name": "OwnableInvalidOwner",
      "type": "error"
    },
    {
      "inputs": [
        {
          "internalType": "address",
          "name": "account",
          "type": "address"
        }
      ],
      "name": "OwnableUnauthorizedAccount",
      "type": "error"
    },
    {
      "anonymous": false,
      "inputs": [
        {
          "indexed": true,
          "internalType": "address",
          "name": "owner",
          "type": "address"
        },
        {
          "indexed": true,
          "internalType": "address",
          "name": "spender",
          "type": "address"
        },
        {
          "indexed": false,
          "internalType": "uint256",
          "name": "value",
          "type": "uint256"
        }
      ],
      "name": "Approval",
      "type": "event"
    },
    {
      "anonymous": false,
      "inputs": [
        {
          "indexed": true,
          "internalType": "address",
          "name": "from",
          "type": "address"
        },
        {
          "indexed": false,
          "internalType": "uint256",
          "name": "amount",
          "type": "uint256"
        },
        {
          "indexed": true,
          "internalType": "bytes32",
          "name": "txHash",
          "type": "bytes32"
        }
      ],
      "name": "BridgeBurn",
      "type": "event"
    },
    {
      "anonymous": false,
      "inputs": [
        {
          "indexed": true,
          "internalType": "address",
          "name": "to",
          "type": "address"
        },
        {
          "indexed": false,
          "internalType": "uint256",
          "name": "amount",
          "type": "uint256"
        },
        {
          "indexed": true,
          "internalType": "bytes32",
          "name": "txHash",
          "type": "bytes32"
        }
      ],
      "name": "BridgeMint",
      "type": "event"
    },
    {
      "anonymous": false,
      "inputs": [
        {
          "indexed": true,
          "internalType": "address",
          "name": "oldBridge",
          "type": "address"
        },
        {
          "indexed": true,
          "internalType": "address",
          "name": "newBridge",
          "type": "address"
        }
      ],
      "name": "BridgeSet",
      "type": "event"
    },
    {
      "anonymous": false,
      "inputs": [
        {
          "indexed": true,
          "internalType": "address",
          "name": "previousOwner",
          "type": "address"
        },
        {
          "indexed": true,
          "internalType": "address",
          "name": "newOwner",
          "type": "address"
        }
      ],
      "name": "OwnershipTransferred",
      "type": "event"
    },
    {
      "anonymous": false,
      "inputs": [
        {
          "indexed": true,
          "internalType": "address",
          "name": "from",
          "type": "address"
        },
        {
          "indexed": true,
          "internalType": "address",
          "name": "to",
          "type": "address"
        },
        {
          "indexed": false,
          "internalType": "uint256",
          "name": "value",
          "type": "uint256"
        }
      ],
      "name": "Transfer",
      "type": "event"
    },
    {
      "inputs": [],
      "name": "MAX_SUPPLY",
      "outputs": [
        {
          "internalType": "uint256",
          "name": "",
          "type": "uint256"
        }
      ],
      "stateMutability": "view",
      "type": "function"
    },
    {
      "inputs": [
        {
          "internalType": "address",
          "name": "owner",
          "type": "address"
        },
        {
          "internalType": "address",
          "name": "spender",
          "type": "address"
        }
      ],
      "name": "allowance",
      "outputs": [
        {
          "internalType": "uint256",
          "name": "",
          "type": "uint256"
        }
      ],
      "stateMutability": "view",
      "type": "function"
    },
    {
      "inputs": [
        {
          "internalType": "address",
          "name": "spender",
          "type": "address"
        },
        {
          "internalType": "uint256",
          "name": "value",
          "type": "uint256"
        }
      ],
      "name": "approve",
      "outputs": [
        {
          "internalType": "bool",
          "name": "",
          "type": "bool"
        }
      ],
      "stateMutability": "nonpayable",
      "type": "function"
    },
    {
      "inputs": [
        {
          "internalType": "address",
          "name": "account",
          "type": "address"
        }
      ],
      "name": "balanceOf",
      "outputs": [
        {
          "internalType": "uint256",
          "name": "",
          "type": "uint256"
        }
      ],
      "stateMutability": "view",
      "type": "function"
    },
    {
      "inputs": [],
      "name": "bridge",
      "outputs": [
        {
          "internalType": "address",
          "name": "",
          "type": "address"
        }
      ],
      "stateMutability": "view",
      "type": "function"
    },
    {
      "inputs": [
        {
          "internalType": "address",
          "name": "from",
          "type": "address"
        },
        {
          "internalType": "uint256",
          "name": "amount",
          "type": "uint256"
        },
        {
          "internalType": "bytes32",
          "name": "txHash",
          "type": "bytes32"
        }
      ],
      "name": "bridgeBurn",
      "outputs": [],
      "stateMutability": "nonpayable",
      "type": "function"
    },
    {
      "inputs": [
        {
          "internalType": "address",
          "name": "to",
          "type": "address"
        },
        {
          "internalType": "uint256",
          "name": "amount",
          "type": "uint256"
        },
        {
          "internalType": "bytes32",
          "name": "txHash",
          "type": "bytes32"
        }
      ],
      "name": "bridgeMint",
      "outputs": [],
      "stateMutability": "nonpayable",
      "type": "function"
    },
    {
      "inputs": [
        {
          "internalType": "uint256",
          "name": "value",
          "type": "uint256"
        }
      ],
      "name": "burn",
      "outputs": [],
      "stateMutability": "nonpayable",
      "type": "function"
    },
    {
      "inputs": [
        {
          "internalType": "address",
          "name": "account",
          "type": "address"
        },
        {
          "internalType": "uint256",
          "name": "value",
          "type": "uint256"
        }
      ],
      "name": "burnFrom",
      "outputs": [],
      "stateMutability": "nonpayable",
      "type": "function"
    },
    {
      "inputs": [],
      "name": "decimals",
      "outputs": [
        {
          "internalType": "uint8",
          "name": "",
          "type": "uint8"
        }
      ],
      "stateMutability": "view",
      "type": "function"
    },
    {
      "inputs": [],
      "name": "name",
      "outputs": [
        {
          "internalType": "string",
          "name": "",
          "type": "string"
        }
      ],
      "stateMutability": "view",
      "type": "function"
    },
    {
      "inputs": [],
      "name": "owner",
      "outputs": [
        {
          "internalType": "address",
          "name": "",
          "type": "address"
        }
      ],
      "stateMutability": "view",
      "type": "function"
    },
    {
      "inputs": [],
      "name": "renounceOwnership",
      "outputs": [],
      "stateMutability": "nonpayable",
      "type": "function"
    },
    {
      "inputs": [
        {
          "internalType": "address",
          "name": "_bridge",
          "type": "address"
        }
      ],
      "name": "setBridge",
      "outputs": [],
      "stateMutability": "nonpayable",
      "type": "function"
    },
    {
      "inputs": [],
      "name": "symbol",
      "outputs": [
        {
          "internalType": "string",
          "name": "",
          "type": "string"
        }
      ],
      "stateMutability": "view",
      "type": "function"
    },
    {
      "inputs": [],
      "name": "tokenInfo",
      "outputs": [
        {
          "internalType": "string",
          "name": "name",
          "type": "string"
        },
        {
          "internalType": "string",
          "name": "symbol",
          "type": "string"
        },
        {
          "internalType": "uint8",
          "name": "decimals",
          "type": "uint8"
        },
        {
          "internalType": "string",
          "name": "website",
          "type": "string"
        },
        {
          "internalType": "string",
          "name": "description",
          "type": "string"
        }
      ],
      "stateMutability": "pure",
      "type": "function"
    },
    {
      "inputs": [],
      "name": "totalSupply",
      "outputs": [
        {
          "internalType": "uint256",
          "name": "",
          "type": "uint256"
        }
      ],
      "stateMutability": "view",
      "type": "function"
    },
    {
      "inputs": [
        {
          "internalType": "address",
          "name": "to",
          "type": "address"
        },
        {
          "internalType": "uint256",
          "name": "value",
          "type": "uint256"
        }
      ],
      "name": "transfer",
      "outputs": [
        {
          "internalType": "bool",
          "name": "",
          "type": "bool"
        }
      ],
      "stateMutability": "nonpayable",
      "type": "function"
    },
    {
      "inputs": [
        {
          "internalType": "address",
          "name": "from",
          "type": "address"
        },
        {
          "internalType": "address",
          "name": "to",
          "type": "address"
        },
        {
          "internalType": "uint256",
          "name": "value",
          "type": "uint256"
        }
      ],
      "name": "transferFrom",
      "outputs": [
        {
          "internalType": "bool",
          "name": "",
          "type": "bool"
        }
      ],
      "stateMutability": "nonpayable",
      "type": "function"
    },
    {
      "inputs": [
        {
          "internalType": "address",
          "name": "newOwner",
          "type": "address"
        }
      ],
      "name": "transferOwnership",
      "outputs": [],
      "stateMutability": "nonpayable",
      "type": "function"
    }
  ],
  "bytecode": "0x60806040523480156200001157600080fd5b50336040518060400160405280600681526020016530e2dd1c9a5960d21b8152506040518060400160405280600481526020016361c5aa2960e11b815250816003908162000060919062000332565b5060046200006f828262000332565b5050506001600160a01b038116620000a257604051631e4fbdf760e01b8152600060048201526024015b60405180910390fd5b620000ad81620000ca565b50620000c43369152d02c7e14af68000006200011c565b62000426565b600580546001600160a01b038381166001600160a01b0319831681179093556040519116919082907f8be0079c531659141344cd1fd0a4f28419497f9722a3daafe3b4186f6b6457e090600090a35050565b6001600160a01b038216620001485760405163ec442f0560e01b81526000600482015260240162000099565b62000156600083836200015a565b5050565b6001600160a01b038316620001895780600260008282546200017d9190620003fe565b90915550620001fd9050565b6001600160a01b03831660009081526020819052604090205481811015620001de5760405163391434e360e21b81526001600160a01b0385166004820152602481018290526044810183905260640162000099565b6001600160a01b03841660009081526020819052604090209082900390555b6001600160a01b0382166200021b576002805482900390556200023a565b6001600160a01b03821660009081526020819052604090208054820190555b816001600160a01b0316836001600160a01b03167fddf252ad1be2c89b69c2b068fc378daa952ba7f163c4a11628f55a4df523b3ef836040516200028091815260200190565b60405180910390a3505050565b634e487b7160e01b600052604160045260246000fd5b600181811c90821680620002b857607f821691505b602082108103620002d957634e487b7160e01b600052602260045260246000fd5b50919050565b601f8211156200032d57600081815260208120601f850160051c81016020861015620003085750805b601f850160051c820191505b81811015620003295782815560010162000314565b5050505b505050565b81516001600160401b038111156200034e576200034e6200028d565b62000366816200035f8454620002a3565b84620002df565b602080601f8311600181146200039e5760008415620003855750858301515b600019600386901b1c1916600185901b17855562000329565b600085815260208120601f198616915b82811015620003cf57888601518255948401946001909101908401620003ae565b5085821015620003ee5787850151600019600388901b60f8161c191681555b5050505050600190811b01905550565b808201808211156200042057634e487b7160e01b600052601160045260246000fd5b92915050565b610e7980620004366000396000f3fe608060405234801561001057600080fd5b506004361061012c5760003560e01c806379cc6790116100ad578063a9059cbb11610071578063a9059cbb1461027e578063dd62ed3e14610291578063e78cea92146102ca578063f2fde38b146102dd578063f661e631146102f057600080fd5b806379cc67901461021857806387e040421461022b5780638da5cb5b1461023e5780638dd148021461026357806395d89b411461027657600080fd5b806332cb6b0c116100f457806332cb6b0c146101a657806342966c68146101b95780636addb663146101ce57806370a08231146101e7578063715018a61461021057600080fd5b806306fdde0314610131578063095ea7b31461014f57806318160ddd1461017257806323b872dd14610184578063313ce56714610197575b600080fd5b610139610303565b6040516101469190610bfd565b60405180910390f35b61016261015d366004610c33565b610395565b6040519015158152602001610146565b6002545b604051908152602001610146565b610162610192366004610c5d565b6103af565b60405160128152602001610146565b6101766b033b2e3c9fd0803ce800000081565b6101cc6101c7366004610c99565b6103d3565b005b6101d66103e0565b604051610146959493929190610cb2565b6101766101f5366004610d14565b6001600160a01b031660009081526020819052604090205490565b6101cc61047c565b6101cc610226366004610c33565b610490565b6101cc610239366004610d2f565b6104a9565b6005546001600160a01b03165b6040516001600160a01b039091168152602001610146565b6101cc610271366004610d14565b61059a565b61013961064d565b61016261028c366004610c33565b61065c565b61017661029f366004610d62565b6001600160a01b03918216600090815260016020908152604080832093909416825291909152205490565b60065461024b906001600160a01b031681565b6101cc6102eb366004610d14565b61066a565b6101cc6102fe366004610d2f565b6106a5565b60606003805461031290610d95565b80601f016020809104026020016040519081016040528092919081815260200182805461033e90610d95565b801561038b5780601f106103605761010080835404028352916020019161038b565b820191906000526020600020905b81548152906001019060200180831161036e57829003601f168201915b5050505050905090565b6000336103a38185856107ea565b60019150505b92915050565b6000336103bd8582856107fc565b6103c885858561087b565b506001949350505050565b6103dd33826108da565b50565b606080600060608060126040518060400160405280600681526020016530e2dd1c9a5960d21b815250906040518060400160405280600481526020016361c5aa2960e11b815250906040518060400160405280601181526020017068747470733a2f2f65747269642e6f726760781b815250604051806080016040528060538152602001610df160539139945094509450945094509091929394565b610484610910565b61048e600061093d565b565b61049b8233836107fc565b6104a582826108da565b5050565b6006546001600160a01b031633146104ff5760405162461bcd60e51b815260206004820152601460248201527327b7363c90313934b233b29031b0b710313ab93760611b60448201526064015b60405180910390fd5b6001600160a01b0383166105475760405162461bcd60e51b815260206004820152600f60248201526e496e76616c6964206164647265737360881b60448201526064016104f6565b61055183836108da565b80836001600160a01b03167f7b7c7eab98a871dfe9496db9802be5d6175a2c454530fa7f467b98cc068951018460405161058d91815260200190565b60405180910390a3505050565b6105a2610910565b6001600160a01b0381166105f15760405162461bcd60e51b8152602060048201526016602482015275496e76616c696420627269646765206164647265737360501b60448201526064016104f6565b6006546040516001600160a01b038084169216907fc0634c245ce7b7b309744c30c030a783629555dc9f0c2c4cb54bdc9d9812d62090600090a3600680546001600160a01b0319166001600160a01b0392909216919091179055565b60606004805461031290610d95565b6000336103a381858561087b565b610672610910565b6001600160a01b03811661069c57604051631e4fbdf760e01b8152600060048201526024016104f6565b6103dd8161093d565b6006546001600160a01b031633146106f65760405162461bcd60e51b815260206004820152601460248201527313db9b1e48189c9a5919d94818d85b881b5a5b9d60621b60448201526064016104f6565b6001600160a01b0383166107405760405162461bcd60e51b8152602060048201526011602482015270125b9d985b1a59081c9958da5c1a595b9d607a1b60448201526064016104f6565b6b033b2e3c9fd0803ce80000008261075760025490565b6107619190610dcf565b11156107a45760405162461bcd60e51b815260206004820152601260248201527145786365656473206d617820737570706c7960701b60448201526064016104f6565b6107ae838361098f565b80836001600160a01b03167f096d591342eea46377f5d86fed8a91ab1e9be20a7c3f5d698cecc1d4f698680a8460405161058d91815260200190565b6107f783838360016109c5565b505050565b6001600160a01b03838116600090815260016020908152604080832093861683529290522054600019811015610875578181101561086657604051637dc7a0d960e11b81526001600160a01b038416600482015260248101829052604481018390526064016104f6565b610875848484840360006109c5565b50505050565b6001600160a01b0383166108a557604051634b637e8f60e11b8152600060048201526024016104f6565b6001600160a01b0382166108cf5760405163ec442f0560e01b8152600060048201526024016104f6565b6107f7838383610a9a565b6001600160a01b03821661090457604051634b637e8f60e11b8152600060048201526024016104f6565b6104a582600083610a9a565b6005546001600160a01b0316331461048e5760405163118cdaa760e01b81523360048201526024016104f6565b600580546001600160a01b038381166001600160a01b0319831681179093556040519116919082907f8be0079c531659141344cd1fd0a4f28419497f9722a3daafe3b4186f6b6457e090600090a35050565b6001600160a01b0382166109b95760405163ec442f0560e01b8152600060048201526024016104f6565b6104a560008383610a9a565b6001600160a01b0384166109ef5760405163e602df0560e01b8152600060048201526024016104f6565b6001600160a01b038316610a1957604051634a1406b160e11b8152600060048201526024016104f6565b6001600160a01b038085166000908152600160209081526040808320938716835292905220829055801561087557826001600160a01b0316846001600160a01b03167f8c5be1e5ebec7d5bd14f71427d1e84f3dd0314c0f7b2291e5b200ac8c7c3b92584604051610a8c91815260200190565b60405180910390a350505050565b6001600160a01b038316610ac5578060026000828254610aba9190610dcf565b90915550610b379050565b6001600160a01b03831660009081526020819052604090205481811015610b185760405163391434e360e21b81526001600160a01b038516600482015260248101829052604481018390526064016104f6565b6001600160a01b03841660009081526020819052604090209082900390555b6001600160a01b038216610b5357600280548290039055610b72565b6001600160a01b03821660009081526020819052604090208054820190555b816001600160a01b0316836001600160a01b03167fddf252ad1be2c89b69c2b068fc378daa952ba7f163c4a11628f55a4df523b3ef8360405161058d91815260200190565b6000815180845260005b81811015610bdd57602081850181015186830182015201610bc1565b506000602082860101526020601f19601f83011685010191505092915050565b602081526000610c106020830184610bb7565b9392505050565b80356001600160a01b0381168114610c2e57600080fd5b919050565b60008060408385031215610c4657600080fd5b610c4f83610c17565b946020939093013593505050565b600080600060608486031215610c7257600080fd5b610c7b84610c17565b9250610c8960208501610c17565b9150604084013590509250925092565b600060208284031215610cab57600080fd5b5035919050565b60a081526000610cc560a0830188610bb7565b8281036020840152610cd78188610bb7565b905060ff861660408401528281036060840152610cf48186610bb7565b90508281036080840152610d088185610bb7565b98975050505050505050565b600060208284031215610d2657600080fd5b610c1082610c17565b600080600060608486031215610d4457600080fd5b610d4d84610c17565b95602085013595506040909401359392505050565b60008060408385031215610d7557600080fd5b610d7e83610c17565b9150610d8c60208401610c17565b90509250929050565b600181811c90821680610da957607f821691505b602082108103610dc957634e487b7160e01b600052602260045260246000fd5b50919050565b808201808211156103a957634e487b7160e01b600052601160045260246000fdfe4e617469766520746f6b656e206f6620c38b74726964204d756c7469636861696e2050726f746f636f6c202d20446563656e7472616c697a65642c2044656d6f6372617469632c205472616e73706172656e74a26469706673582212209ebc29c0d0693ab6e0e35be60826d8ddf9d34e966f9f2933b719de6ef136740064736f6c63430008140033",
  "linkReferences": {},
  "deployedLinkReferences": {}
}