{
  "_format": "hh-sol-artifact-1",
  "contractName": "MasterChef",
  "sourceName": "src/farming/MasterChef.sol",
  "abi": [
    {
      "inputs": [
        {
          "internalType": "contract IERC20",
          "name": "_rewardToken",
          "type": "address"
        },
        {
          "internalType": "uint256",
          "name": "_rewardPerBlock",
          "type": "uint256"
        },
        {
          "internalType": "uint256",
          "name": "_startBlock",
          "type": "uint256"
        }
      ],
      "stateMutability": "nonpayable",
      "type": "constructor"
    },
    {
      "anonymous": false,
      "inputs": [
        {
          "indexed": true,
          "internalType": "address",
          "name": "user",
          "type": "address"
        },
        {
          "indexed": true,
          "internalType": "uint256",
          "name": "pid",
          "type": "uint256"
        },
        {
          "indexed": false,
          "internalType": "uint256",
          "name": "amount",
          "type": "uint256"
        }
      ],
      "name": "Deposit",
      "type": "event"
    },
    {
      "anonymous": false,
      "inputs": [
        {
          "indexed": true,
          "internalType": "address",
          "name": "user",
          "type": "address"
        },
        {
          "indexed": true,
          "internalType": "uint256",
          "name": "pid",
          "type": "uint256"
        },
        {
          "indexed": false,
          "internalType": "uint256",
          "name": "amount",
          "type": "uint256"
        }
      ],
      "name": "EmergencyWithdraw",
      "type": "event"
    },
    {
      "anonymous": false,
      "inputs": [
        {
          "indexed": true,
          "internalType": "address",
          "name": "user",
          "type": "address"
        },
        {
          "indexed": true,
          "internalType": "uint256",
          "name": "pid",
          "type": "uint256"
        },
        {
          "indexed": false,
          "internalType": "uint256",
          "name": "amount",
          "type": "uint256"
        }
      ],
      "name": "Withdraw",
      "type": "event"
    },
    {
      "inputs": [],
      "name": "BONUS_MULTIPLIER",
      "outputs": [
        {
          "internalType": "uint256",
          "name": "",
          "type": "uint256"
        }
      ],
      "stateMutability": "view",
      "type": "function"
    },
    {
      "inputs": [
        {
          "internalType": "uint256",
          "name": "_allocPoint",
          "type": "uint256"
        },
        {
          "internalType": "contract IERC20",
          "name": "_lpToken",
          "type": "address"
        },
        {
          "internalType": "bool",
          "name": "_withUpdate",
          "type": "bool"
        }
      ],
      "name": "add",
      "outputs": [],
      "stateMutability": "nonpayable",
      "type": "function"
    },
    {
      "inputs": [
        {
          "internalType": "uint256",
          "name": "_pid",
          "type": "uint256"
        },
        {
          "internalType": "uint256",
          "name": "_amount",
          "type": "uint256"
        }
      ],
      "name": "deposit",
      "outputs": [],
      "stateMutability": "nonpayable",
      "type": "function"
    },
    {
      "inputs": [
        {
          "internalType": "uint256",
          "name": "_pid",
          "type": "uint256"
        }
      ],
      "name": "emergencyWithdraw",
      "outputs": [],
      "stateMutability": "nonpayable",
      "type": "function"
    },
    {
      "inputs": [
        {
          "internalType": "uint256",
          "name": "_from",
          "type": "uint256"
        },
        {
          "internalType": "uint256",
          "name": "_to",
          "type": "uint256"
        }
      ],
      "name": "getMultiplier",
      "outputs": [
        {
          "internalType": "uint256",
          "name": "",
          "type": "uint256"
        }
      ],
      "stateMutability": "pure",
      "type": "function"
    },
    {
      "inputs": [],
      "name": "massUpdatePools",
      "outputs": [],
      "stateMutability": "nonpayable",
      "type": "function"
    },
    {
      "inputs": [],
      "name": "owner",
      "outputs": [
        {
          "internalType": "address",
          "name": "",
          "type": "address"
        }
      ],
      "stateMutability": "view",
      "type": "function"
    },
    {
      "inputs": [
        {
          "internalType": "uint256",
          "name": "_pid",
          "type": "uint256"
        },
        {
          "internalType": "address",
          "name": "_user",
          "type": "address"
        }
      ],
      "name": "pendingReward",
      "outputs": [
        {
          "internalType": "uint256",
          "name": "",
          "type": "uint256"
        }
      ],
      "stateMutability": "view",
      "type": "function"
    },
    {
      "inputs": [
        {
          "internalType": "uint256",
          "name": "",
          "type": "uint256"
        }
      ],
      "name": "poolInfo",
      "outputs": [
        {
          "internalType": "contract IERC20",
          "name": "lpToken",
          "type": "address"
        },
        {
          "internalType": "uint256",
          "name": "allocPoint",
          "type": "uint256"
        },
        {
          "internalType": "uint256",
          "name": "lastRewardBlock",
          "type": "uint256"
        },
        {
          "internalType": "uint256",
          "name": "accRewardPerShare",
          "type": "uint256"
        }
      ],
      "stateMutability": "view",
      "type": "function"
    },
    {
      "inputs": [],
      "name": "poolLength",
      "outputs": [
        {
          "internalType": "uint256",
          "name": "",
          "type": "uint256"
        }
      ],
      "stateMutability": "view",
      "type": "function"
    },
    {
      "inputs": [],
      "name": "rewardPerBlock",
      "outputs": [
        {
          "internalType": "uint256",
          "name": "",
          "type": "uint256"
        }
      ],
      "stateMutability": "view",
      "type": "function"
    },
    {
      "inputs": [],
      "name": "rewardToken",
      "outputs": [
        {
          "internalType": "contract IERC20",
          "name": "",
          "type": "address"
        }
      ],
      "stateMutability": "view",
      "type": "function"
    },
    {
      "inputs": [
        {
          "internalType": "uint256",
          "name": "_pid",
          "type": "uint256"
        },
        {
          "internalType": "uint256",
          "name": "_allocPoint",
          "type": "uint256"
        },
        {
          "internalType": "bool",
          "name": "_withUpdate",
          "type": "bool"
        }
      ],
      "name": "set",
      "outputs": [],
      "stateMutability": "nonpayable",
      "type": "function"
    },
    {
      "inputs": [],
      "name": "startBlock",
      "outputs": [
        {
          "internalType": "uint256",
          "name": "",
          "type": "uint256"
        }
      ],
      "stateMutability": "view",
      "type": "function"
    },
    {
      "inputs": [],
      "name": "totalAllocPoint",
      "outputs": [
        {
          "internalType": "uint256",
          "name": "",
          "type": "uint256"
        }
      ],
      "stateMutability": "view",
      "type": "function"
    },
    {
      "inputs": [
        {
          "internalType": "address",
          "name": "newOwner",
          "type": "address"
        }
      ],
      "name": "transferOwnership",
      "outputs": [],
      "stateMutability": "nonpayable",
      "type": "function"
    },
    {
      "inputs": [
        {
          "internalType": "uint256",
          "name": "_pid",
          "type": "uint256"
        }
      ],
      "name": "updatePool",
      "outputs": [],
      "stateMutability": "nonpayable",
      "type": "function"
    },
    {
      "inputs": [
        {
          "internalType": "uint256",
          "name": "_rewardPerBlock",
          "type": "uint256"
        }
      ],
      "name": "updateRewardPerBlock",
      "outputs": [],
      "stateMutability": "nonpayable",
      "type": "function"
    },
    {
      "inputs": [
        {
          "internalType": "uint256",
          "name": "",
          "type": "uint256"
        },
        {
          "internalType": "address",
          "name": "",
          "type": "address"
        }
      ],
      "name": "userInfo",
      "outputs": [
        {
          "internalType": "uint256",
          "name": "amount",
          "type": "uint256"
        },
        {
          "internalType": "uint256",
          "name": "rewardDebt",
          "type": "uint256"
        }
      ],
      "stateMutability": "view",
      "type": "function"
    },
    {
      "inputs": [
        {
          "internalType": "uint256",
          "name": "_pid",
          "type": "uint256"
        },
        {
          "internalType": "uint256",
          "name": "_amount",
          "type": "uint256"
        }
      ],
      "name": "withdraw",
      "outputs": [],
      "stateMutability": "nonpayable",
      "type": "function"
    }
  ],
  "bytecode": "0x6080604052600060045534801561001557600080fd5b506040516116143803806116148339810160408190526100349161006b565b600080546001600160a01b039094166001600160a01b031994851617905560019190915560055560068054909116331790556100ae565b60008060006060848603121561008057600080fd5b83516001600160a01b038116811461009757600080fd5b602085015160409095015190969495509392505050565b611557806100bd6000396000f3fe608060405234801561001057600080fd5b506004361061016c5760003560e01c806364482f79116100cd57806393f1a40b11610081578063e2bbb15811610066578063e2bbb15814610323578063f2fde38b14610336578063f7c618c11461034957600080fd5b806393f1a40b146102c957806398969e821461031057600080fd5b80638ae39cac116100b25780638ae39cac146102685780638da5cb5b146102715780638dbb1e3a146102b657600080fd5b806364482f791461024d5780638aa285501461026057600080fd5b8063441a3e701161012457806351eb05a61161010957806351eb05a61461021f5780635312ea8e14610232578063630b5ba11461024557600080fd5b8063441a3e701461020357806348cd4cb11461021657600080fd5b80631526fe27116101555780631526fe271461019d57806317caf6f1146101e75780631eaaa045146101f057600080fd5b806301f8a97614610171578063081e3eda14610186575b600080fd5b61018461017f3660046112d4565b610369565b005b6002545b6040519081526020015b60405180910390f35b6101b06101ab3660046112d4565b610422565b6040805173ffffffffffffffffffffffffffffffffffffffff90951685526020850193909352918301526060820152608001610194565b61018a60045481565b6101846101fe366004611320565b610473565b610184610211366004611362565b610664565b61018a60055481565b61018461022d3660046112d4565b610871565b6101846102403660046112d4565b6109ca565b610184610af1565b61018461025b366004611384565b610b1c565b61018a600181565b61018a60015481565b6006546102919073ffffffffffffffffffffffffffffffffffffffff1681565b60405173ffffffffffffffffffffffffffffffffffffffff9091168152602001610194565b61018a6102c4366004611362565b610c42565b6102fb6102d73660046113b2565b60036020908152600092835260408084209091529082529020805460019091015482565b60408051928352602083019190915201610194565b61018a61031e3660046113b2565b610c63565b610184610331366004611362565b610dfc565b6101846103443660046113e2565b610fa3565b6000546102919073ffffffffffffffffffffffffffffffffffffffff1681565b60065473ffffffffffffffffffffffffffffffffffffffff163314610415576040517f08c379a000000000000000000000000000000000000000000000000000000000815260206004820152602360248201527f4d6173746572436865663a2063616c6c6572206973206e6f7420746865206f7760448201527f6e6572000000000000000000000000000000000000000000000000000000000060648201526084015b60405180910390fd5b61041d610af1565b600155565b6002818154811061043257600080fd5b6000918252602090912060049091020180546001820154600283015460039093015473ffffffffffffffffffffffffffffffffffffffff9092169350919084565b60065473ffffffffffffffffffffffffffffffffffffffff16331461051a576040517f08c379a000000000000000000000000000000000000000000000000000000000815260206004820152602360248201527f4d6173746572436865663a2063616c6c6572206973206e6f7420746865206f7760448201527f6e65720000000000000000000000000000000000000000000000000000000000606482015260840161040c565b801561052857610528610af1565b6000600554431161053b5760055461053d565b435b90508360045461054d9190611435565b60049081556040805160808101825273ffffffffffffffffffffffffffffffffffffffff958616815260208101968752908101928352600060608201818152600280546001810182559252915192027f405787fa12a823e0f2b7631cc41b3ba8828b3321ca811111fa75cd3aa3bb5ace81018054939096167fffffffffffffffffffffffff00000000000000000000000000000000000000009093169290921790945593517f405787fa12a823e0f2b7631cc41b3ba8828b3321ca811111fa75cd3aa3bb5acf850155517f405787fa12a823e0f2b7631cc41b3ba8828b3321ca811111fa75cd3aa3bb5ad084015550517f405787fa12a823e0f2b7631cc41b3ba8828b3321ca811111fa75cd3aa3bb5ad190910155565b60006002838154811061067957610679611448565b60009182526020808320868452600382526040808520338652909252922080546004909202909201925083111561070c576040517f08c379a000000000000000000000000000000000000000000000000000000000815260206004820152601260248201527f77697468647261773a206e6f7420676f6f640000000000000000000000000000604482015260640161040c565b61071584610871565b6000816001015464e8d4a51000846003015484600001546107369190611477565b610740919061148e565b61074a91906114c9565b9050801561075c5761075c3382611134565b831561080d57815461076f9085906114c9565b825582546040517fa9059cbb0000000000000000000000000000000000000000000000000000000081523360048201526024810186905273ffffffffffffffffffffffffffffffffffffffff9091169063a9059cbb906044016020604051808303816000875af11580156107e7573d6000803e3d6000fd5b505050506040513d601f19601f8201168201806040525081019061080b91906114dc565b505b6003830154825464e8d4a510009161082491611477565b61082e919061148e565b6001830155604051848152859033907ff279e6a1f5e320cca91135676d9cb6e44ca8a08c0b88342bcdb1144f6511b5689060200160405180910390a35050505050565b60006002828154811061088657610886611448565b90600052602060002090600402019050806002015443116108a5575050565b80546040517f70a0823100000000000000000000000000000000000000000000000000000000815230600482015260009173ffffffffffffffffffffffffffffffffffffffff16906370a0823190602401602060405180830381865afa158015610913573d6000803e3d6000fd5b505050506040513d601f19601f8201168201806040525081019061093791906114f9565b90508060000361094c57504360029091015550565b600061095c836002015443610c42565b905060006004548460010154600154846109769190611477565b6109809190611477565b61098a919061148e565b90508261099c8264e8d4a51000611477565b6109a6919061148e565b84600301546109b59190611435565b60038501555050436002909201919091555050565b6000600282815481106109df576109df611448565b60009182526020808320858452600382526040808520338087529352808520805486825560018201969096556004948502909201805491517fa9059cbb0000000000000000000000000000000000000000000000000000000081529485019390935260248401859052919450929173ffffffffffffffffffffffffffffffffffffffff9091169063a9059cbb906044016020604051808303816000875af1158015610a8e573d6000803e3d6000fd5b505050506040513d601f19601f82011682018060405250810190610ab291906114dc565b50604051818152849033907fbb757047c2b5f3974fe26b7c10f732e7bce710b0952a71082702781e62ae0595906020015b60405180910390a350505050565b60025460005b81811015610b1857610b0881610871565b610b1181611512565b9050610af7565b5050565b60065473ffffffffffffffffffffffffffffffffffffffff163314610bc3576040517f08c379a000000000000000000000000000000000000000000000000000000000815260206004820152602360248201527f4d6173746572436865663a2063616c6c6572206973206e6f7420746865206f7760448201527f6e65720000000000000000000000000000000000000000000000000000000000606482015260840161040c565b8015610bd157610bd1610af1565b8160028481548110610be557610be5611448565b906000526020600020906004020160010154600454610c0491906114c9565b610c0e9190611435565b6004819055508160028481548110610c2857610c28611448565b906000526020600020906004020160010181905550505050565b60006001610c5084846114c9565b610c5a9190611477565b90505b92915050565b60008060028481548110610c7957610c79611448565b600091825260208083208784526003808352604080862073ffffffffffffffffffffffffffffffffffffffff8a811688529452808620600495860290930191820154825491517f70a08231000000000000000000000000000000000000000000000000000000008152309681019690965291965091949093909291909116906370a0823190602401602060405180830381865afa158015610d1e573d6000803e3d6000fd5b505050506040513d601f19601f82011682018060405250810190610d4291906114f9565b9050836002015443118015610d5657508015155b15610dc4576000610d6b856002015443610c42565b90506000600454866001015460015484610d859190611477565b610d8f9190611477565b610d99919061148e565b905082610dab8264e8d4a51000611477565b610db5919061148e565b610dbf9085611435565b935050505b6001830154835464e8d4a5100090610ddd908590611477565b610de7919061148e565b610df191906114c9565b979650505050505050565b600060028381548110610e1157610e11611448565b60009182526020808320868452600382526040808520338652909252922060049091029091019150610e4284610871565b805415610e92576000816001015464e8d4a5100084600301548460000154610e6a9190611477565b610e74919061148e565b610e7e91906114c9565b90508015610e9057610e903382611134565b505b8215610f495781546040517f23b872dd0000000000000000000000000000000000000000000000000000000081523360048201523060248201526044810185905273ffffffffffffffffffffffffffffffffffffffff909116906323b872dd906064016020604051808303816000875af1158015610f14573d6000803e3d6000fd5b505050506040513d601f19601f82011682018060405250810190610f3891906114dc565b508054610f46908490611435565b81555b6003820154815464e8d4a5100091610f6091611477565b610f6a919061148e565b6001820155604051838152849033907f90890809c654f11d6e72a28fa60149770a0d11ec6c92319d6ceb2bb0a4ea1a1590602001610ae3565b60065473ffffffffffffffffffffffffffffffffffffffff16331461104a576040517f08c379a000000000000000000000000000000000000000000000000000000000815260206004820152602360248201527f4d6173746572436865663a2063616c6c6572206973206e6f7420746865206f7760448201527f6e65720000000000000000000000000000000000000000000000000000000000606482015260840161040c565b73ffffffffffffffffffffffffffffffffffffffff81166110ed576040517f08c379a000000000000000000000000000000000000000000000000000000000815260206004820152602960248201527f4d6173746572436865663a206e6577206f776e657220697320746865207a657260448201527f6f20616464726573730000000000000000000000000000000000000000000000606482015260840161040c565b600680547fffffffffffffffffffffffff00000000000000000000000000000000000000001673ffffffffffffffffffffffffffffffffffffffff92909216919091179055565b600080546040517f70a0823100000000000000000000000000000000000000000000000000000000815230600482015273ffffffffffffffffffffffffffffffffffffffff909116906370a0823190602401602060405180830381865afa1580156111a3573d6000803e3d6000fd5b505050506040513d601f19601f820116820180604052508101906111c791906114f9565b905080821115611275576000546040517fa9059cbb00000000000000000000000000000000000000000000000000000000815273ffffffffffffffffffffffffffffffffffffffff8581166004830152602482018490529091169063a9059cbb906044015b6020604051808303816000875af115801561124b573d6000803e3d6000fd5b505050506040513d601f19601f8201168201806040525081019061126f91906114dc565b50505050565b6000546040517fa9059cbb00000000000000000000000000000000000000000000000000000000815273ffffffffffffffffffffffffffffffffffffffff8581166004830152602482018590529091169063a9059cbb9060440161122c565b6000602082840312156112e657600080fd5b5035919050565b73ffffffffffffffffffffffffffffffffffffffff8116811461130f57600080fd5b50565b801515811461130f57600080fd5b60008060006060848603121561133557600080fd5b833592506020840135611347816112ed565b9150604084013561135781611312565b809150509250925092565b6000806040838503121561137557600080fd5b50508035926020909101359150565b60008060006060848603121561139957600080fd5b8335925060208401359150604084013561135781611312565b600080604083850312156113c557600080fd5b8235915060208301356113d7816112ed565b809150509250929050565b6000602082840312156113f457600080fd5b81356113ff816112ed565b9392505050565b7f4e487b7100000000000000000000000000000000000000000000000000000000600052601160045260246000fd5b80820180821115610c5d57610c5d611406565b7f4e487b7100000000000000000000000000000000000000000000000000000000600052603260045260246000fd5b8082028115828204841417610c5d57610c5d611406565b6000826114c4577f4e487b7100000000000000000000000000000000000000000000000000000000600052601260045260246000fd5b500490565b81810381811115610c5d57610c5d611406565b6000602082840312156114ee57600080fd5b81516113ff81611312565b60006020828403121561150b57600080fd5b5051919050565b60007fffffffffffffffffffffffffffffffffffffffffffffffffffffffffffffffff820361154357611543611406565b506001019056fea164736f6c6343000814000a",
  "linkReferences": {},
  "deployedLinkReferences": {}
}