{"src/farming/MasterChef.sol":{"MasterChef":{"abi":[{"inputs":[{"internalType":"contract IERC20","name":"_rewardToken","type":"address"},{"internalType":"uint256","name":"_rewardPerBlock","type":"uint256"},{"internalType":"uint256","name":"_startBlock","type":"uint256"}],"stateMutability":"nonpayable","type":"constructor"},{"anonymous":false,"inputs":[{"indexed":true,"internalType":"address","name":"user","type":"address"},{"indexed":true,"internalType":"uint256","name":"pid","type":"uint256"},{"indexed":false,"internalType":"uint256","name":"amount","type":"uint256"}],"name":"Deposit","type":"event"},{"anonymous":false,"inputs":[{"indexed":true,"internalType":"address","name":"user","type":"address"},{"indexed":true,"internalType":"uint256","name":"pid","type":"uint256"},{"indexed":false,"internalType":"uint256","name":"amount","type":"uint256"}],"name":"EmergencyWithdraw","type":"event"},{"anonymous":false,"inputs":[{"indexed":true,"internalType":"address","name":"user","type":"address"},{"indexed":true,"internalType":"uint256","name":"pid","type":"uint256"},{"indexed":false,"internalType":"uint256","name":"amount","type":"uint256"}],"name":"Withdraw","type":"event"},{"inputs":[],"name":"BONUS_MULTIPLIER","outputs":[{"internalType":"uint256","name":"","type":"uint256"}],"stateMutability":"view","type":"function"},{"inputs":[{"internalType":"uint256","name":"_allocPoint","type":"uint256"},{"internalType":"contract IERC20","name":"_lpToken","type":"address"},{"internalType":"bool","name":"_withUpdate","type":"bool"}],"name":"add","outputs":[],"stateMutability":"nonpayable","type":"function"},{"inputs":[{"internalType":"uint256","name":"_pid","type":"uint256"},{"internalType":"uint256","name":"_amount","type":"uint256"}],"name":"deposit","outputs":[],"stateMutability":"nonpayable","type":"function"},{"inputs":[{"internalType":"uint256","name":"_pid","type":"uint256"}],"name":"emergencyWithdraw","outputs":[],"stateMutability":"nonpayable","type":"function"},{"inputs":[{"internalType":"uint256","name":"_from","type":"uint256"},{"internalType":"uint256","name":"_to","type":"uint256"}],"name":"getMultiplier","outputs":[{"internalType":"uint256","name":"","type":"uint256"}],"stateMutability":"pure","type":"function"},{"inputs":[],"name":"massUpdatePools","outputs":[],"stateMutability":"nonpayable","type":"function"},{"inputs":[],"name":"owner","outputs":[{"internalType":"address","name":"","type":"address"}],"stateMutability":"view","type":"function"},{"inputs":[{"internalType":"uint256","name":"_pid","type":"uint256"},{"internalType":"address","name":"_user","type":"address"}],"name":"pendingReward","outputs":[{"internalType":"uint256","name":"","type":"uint256"}],"stateMutability":"view","type":"function"},{"inputs":[{"internalType":"uint256","name":"","type":"uint256"}],"name":"poolInfo","outputs":[{"internalType":"contract IERC20","name":"lpToken","type":"address"},{"internalType":"uint256","name":"allocPoint","type":"uint256"},{"internalType":"uint256","name":"lastRewardBlock","type":"uint256"},{"internalType":"uint256","name":"accRewardPerShare","type":"uint256"}],"stateMutability":"view","type":"function"},{"inputs":[],"name":"poolLength","outputs":[{"internalType":"uint256","name":"","type":"uint256"}],"stateMutability":"view","type":"function"},{"inputs":[],"name":"rewardPerBlock","outputs":[{"internalType":"uint256","name":"","type":"uint256"}],"stateMutability":"view","type":"function"},{"inputs":[],"name":"rewardToken","outputs":[{"internalType":"contract IERC20","name":"","type":"address"}],"stateMutability":"view","type":"function"},{"inputs":[{"internalType":"uint256","name":"_pid","type":"uint256"},{"internalType":"uint256","name":"_allocPoint","type":"uint256"},{"internalType":"bool","name":"_withUpdate","type":"bool"}],"name":"set","outputs":[],"stateMutability":"nonpayable","type":"function"},{"inputs":[],"name":"startBlock","outputs":[{"internalType":"uint256","name":"","type":"uint256"}],"stateMutability":"view","type":"function"},{"inputs":[],"name":"totalAllocPoint","outputs":[{"internalType":"uint256","name":"","type":"uint256"}],"stateMutability":"view","type":"function"},{"inputs":[{"internalType":"address","name":"newOwner","type":"address"}],"name":"transferOwnership","outputs":[],"stateMutability":"nonpayable","type":"function"},{"inputs":[{"internalType":"uint256","name":"_pid","type":"uint256"}],"name":"updatePool","outputs":[],"stateMutability":"nonpayable","type":"function"},{"inputs":[{"internalType":"uint256","name":"_rewardPerBlock","type":"uint256"}],"name":"updateRewardPerBlock","outputs":[],"stateMutability":"nonpayable","type":"function"},{"inputs":[{"internalType":"uint256","name":"","type":"uint256"},{"internalType":"address","name":"","type":"address"}],"name":"userInfo","outputs":[{"internalType":"uint256","name":"amount","type":"uint256"},{"internalType":"uint256","name":"rewardDebt","type":"uint256"}],"stateMutability":"view","type":"function"},{"inputs":[{"internalType":"uint256","name":"_pid","type":"uint256"},{"internalType":"uint256","name":"_amount","type":"uint256"}],"name":"withdraw","outputs":[],"stateMutability":"nonpayable","type":"function"}],"evm":{"bytecode":{"linkReferences":{},"object":"6080604052600060045534801561001557600080fd5b506040516116143803806116148339810160408190526100349161006b565b600080546001600160a01b039094166001600160a01b031994851617905560019190915560055560068054909116331790556100ae565b60008060006060848603121561008057600080fd5b83516001600160a01b038116811461009757600080fd5b602085015160409095015190969495509392505050565b611557806100bd6000396000f3fe608060405234801561001057600080fd5b506004361061016c5760003560e01c806364482f79116100cd57806393f1a40b11610081578063e2bbb15811610066578063e2bbb15814610323578063f2fde38b14610336578063f7c618c11461034957600080fd5b806393f1a40b146102c957806398969e821461031057600080fd5b80638ae39cac116100b25780638ae39cac146102685780638da5cb5b146102715780638dbb1e3a146102b657600080fd5b806364482f791461024d5780638aa285501461026057600080fd5b8063441a3e701161012457806351eb05a61161010957806351eb05a61461021f5780635312ea8e14610232578063630b5ba11461024557600080fd5b8063441a3e701461020357806348cd4cb11461021657600080fd5b80631526fe27116101555780631526fe271461019d57806317caf6f1146101e75780631eaaa045146101f057600080fd5b806301f8a97614610171578063081e3eda14610186575b600080fd5b61018461017f3660046112d4565b610369565b005b6002545b6040519081526020015b60405180910390f35b6101b06101ab3660046112d4565b610422565b6040805173ffffffffffffffffffffffffffffffffffffffff90951685526020850193909352918301526060820152608001610194565b61018a60045481565b6101846101fe366004611320565b610473565b610184610211366004611362565b610664565b61018a60055481565b61018461022d3660046112d4565b610871565b6101846102403660046112d4565b6109ca565b610184610af1565b61018461025b366004611384565b610b1c565b61018a600181565b61018a60015481565b6006546102919073ffffffffffffffffffffffffffffffffffffffff1681565b60405173ffffffffffffffffffffffffffffffffffffffff9091168152602001610194565b61018a6102c4366004611362565b610c42565b6102fb6102d73660046113b2565b60036020908152600092835260408084209091529082529020805460019091015482565b60408051928352602083019190915201610194565b61018a61031e3660046113b2565b610c63565b610184610331366004611362565b610dfc565b6101846103443660046113e2565b610fa3565b6000546102919073ffffffffffffffffffffffffffffffffffffffff1681565b60065473ffffffffffffffffffffffffffffffffffffffff163314610415576040517f08c379a000000000000000000000000000000000000000000000000000000000815260206004820152602360248201527f4d6173746572436865663a2063616c6c6572206973206e6f7420746865206f7760448201527f6e6572000000000000000000000000000000000000000000000000000000000060648201526084015b60405180910390fd5b61041d610af1565b600155565b6002818154811061043257600080fd5b6000918252602090912060049091020180546001820154600283015460039093015473ffffffffffffffffffffffffffffffffffffffff9092169350919084565b60065473ffffffffffffffffffffffffffffffffffffffff16331461051a576040517f08c379a000000000000000000000000000000000000000000000000000000000815260206004820152602360248201527f4d6173746572436865663a2063616c6c6572206973206e6f7420746865206f7760448201527f6e65720000000000000000000000000000000000000000000000000000000000606482015260840161040c565b801561052857610528610af1565b6000600554431161053b5760055461053d565b435b90508360045461054d9190611435565b60049081556040805160808101825273ffffffffffffffffffffffffffffffffffffffff958616815260208101968752908101928352600060608201818152600280546001810182559252915192027f405787fa12a823e0f2b7631cc41b3ba8828b3321ca811111fa75cd3aa3bb5ace81018054939096167fffffffffffffffffffffffff00000000000000000000000000000000000000009093169290921790945593517f405787fa12a823e0f2b7631cc41b3ba8828b3321ca811111fa75cd3aa3bb5acf850155517f405787fa12a823e0f2b7631cc41b3ba8828b3321ca811111fa75cd3aa3bb5ad084015550517f405787fa12a823e0f2b7631cc41b3ba8828b3321ca811111fa75cd3aa3bb5ad190910155565b60006002838154811061067957610679611448565b60009182526020808320868452600382526040808520338652909252922080546004909202909201925083111561070c576040517f08c379a000000000000000000000000000000000000000000000000000000000815260206004820152601260248201527f77697468647261773a206e6f7420676f6f640000000000000000000000000000604482015260640161040c565b61071584610871565b6000816001015464e8d4a51000846003015484600001546107369190611477565b610740919061148e565b61074a91906114c9565b9050801561075c5761075c3382611134565b831561080d57815461076f9085906114c9565b825582546040517fa9059cbb0000000000000000000000000000000000000000000000000000000081523360048201526024810186905273ffffffffffffffffffffffffffffffffffffffff9091169063a9059cbb906044016020604051808303816000875af11580156107e7573d6000803e3d6000fd5b505050506040513d601f19601f8201168201806040525081019061080b91906114dc565b505b6003830154825464e8d4a510009161082491611477565b61082e919061148e565b6001830155604051848152859033907ff279e6a1f5e320cca91135676d9cb6e44ca8a08c0b88342bcdb1144f6511b5689060200160405180910390a35050505050565b60006002828154811061088657610886611448565b90600052602060002090600402019050806002015443116108a5575050565b80546040517f70a0823100000000000000000000000000000000000000000000000000000000815230600482015260009173ffffffffffffffffffffffffffffffffffffffff16906370a0823190602401602060405180830381865afa158015610913573d6000803e3d6000fd5b505050506040513d601f19601f8201168201806040525081019061093791906114f9565b90508060000361094c57504360029091015550565b600061095c836002015443610c42565b905060006004548460010154600154846109769190611477565b6109809190611477565b61098a919061148e565b90508261099c8264e8d4a51000611477565b6109a6919061148e565b84600301546109b59190611435565b60038501555050436002909201919091555050565b6000600282815481106109df576109df611448565b60009182526020808320858452600382526040808520338087529352808520805486825560018201969096556004948502909201805491517fa9059cbb0000000000000000000000000000000000000000000000000000000081529485019390935260248401859052919450929173ffffffffffffffffffffffffffffffffffffffff9091169063a9059cbb906044016020604051808303816000875af1158015610a8e573d6000803e3d6000fd5b505050506040513d601f19601f82011682018060405250810190610ab291906114dc565b50604051818152849033907fbb757047c2b5f3974fe26b7c10f732e7bce710b0952a71082702781e62ae0595906020015b60405180910390a350505050565b60025460005b81811015610b1857610b0881610871565b610b1181611512565b9050610af7565b5050565b60065473ffffffffffffffffffffffffffffffffffffffff163314610bc3576040517f08c379a000000000000000000000000000000000000000000000000000000000815260206004820152602360248201527f4d6173746572436865663a2063616c6c6572206973206e6f7420746865206f7760448201527f6e65720000000000000000000000000000000000000000000000000000000000606482015260840161040c565b8015610bd157610bd1610af1565b8160028481548110610be557610be5611448565b906000526020600020906004020160010154600454610c0491906114c9565b610c0e9190611435565b6004819055508160028481548110610c2857610c28611448565b906000526020600020906004020160010181905550505050565b60006001610c5084846114c9565b610c5a9190611477565b90505b92915050565b60008060028481548110610c7957610c79611448565b600091825260208083208784526003808352604080862073ffffffffffffffffffffffffffffffffffffffff8a811688529452808620600495860290930191820154825491517f70a08231000000000000000000000000000000000000000000000000000000008152309681019690965291965091949093909291909116906370a0823190602401602060405180830381865afa158015610d1e573d6000803e3d6000fd5b505050506040513d601f19601f82011682018060405250810190610d4291906114f9565b9050836002015443118015610d5657508015155b15610dc4576000610d6b856002015443610c42565b90506000600454866001015460015484610d859190611477565b610d8f9190611477565b610d99919061148e565b905082610dab8264e8d4a51000611477565b610db5919061148e565b610dbf9085611435565b935050505b6001830154835464e8d4a5100090610ddd908590611477565b610de7919061148e565b610df191906114c9565b979650505050505050565b600060028381548110610e1157610e11611448565b60009182526020808320868452600382526040808520338652909252922060049091029091019150610e4284610871565b805415610e92576000816001015464e8d4a5100084600301548460000154610e6a9190611477565b610e74919061148e565b610e7e91906114c9565b90508015610e9057610e903382611134565b505b8215610f495781546040517f23b872dd0000000000000000000000000000000000000000000000000000000081523360048201523060248201526044810185905273ffffffffffffffffffffffffffffffffffffffff909116906323b872dd906064016020604051808303816000875af1158015610f14573d6000803e3d6000fd5b505050506040513d601f19601f82011682018060405250810190610f3891906114dc565b508054610f46908490611435565b81555b6003820154815464e8d4a5100091610f6091611477565b610f6a919061148e565b6001820155604051838152849033907f90890809c654f11d6e72a28fa60149770a0d11ec6c92319d6ceb2bb0a4ea1a1590602001610ae3565b60065473ffffffffffffffffffffffffffffffffffffffff16331461104a576040517f08c379a000000000000000000000000000000000000000000000000000000000815260206004820152602360248201527f4d6173746572436865663a2063616c6c6572206973206e6f7420746865206f7760448201527f6e65720000000000000000000000000000000000000000000000000000000000606482015260840161040c565b73ffffffffffffffffffffffffffffffffffffffff81166110ed576040517f08c379a000000000000000000000000000000000000000000000000000000000815260206004820152602960248201527f4d6173746572436865663a206e6577206f776e657220697320746865207a657260448201527f6f20616464726573730000000000000000000000000000000000000000000000606482015260840161040c565b600680547fffffffffffffffffffffffff00000000000000000000000000000000000000001673ffffffffffffffffffffffffffffffffffffffff92909216919091179055565b600080546040517f70a0823100000000000000000000000000000000000000000000000000000000815230600482015273ffffffffffffffffffffffffffffffffffffffff909116906370a0823190602401602060405180830381865afa1580156111a3573d6000803e3d6000fd5b505050506040513d601f19601f820116820180604052508101906111c791906114f9565b905080821115611275576000546040517fa9059cbb00000000000000000000000000000000000000000000000000000000815273ffffffffffffffffffffffffffffffffffffffff8581166004830152602482018490529091169063a9059cbb906044015b6020604051808303816000875af115801561124b573d6000803e3d6000fd5b505050506040513d601f19601f8201168201806040525081019061126f91906114dc565b50505050565b6000546040517fa9059cbb00000000000000000000000000000000000000000000000000000000815273ffffffffffffffffffffffffffffffffffffffff8581166004830152602482018590529091169063a9059cbb9060440161122c565b6000602082840312156112e657600080fd5b5035919050565b73ffffffffffffffffffffffffffffffffffffffff8116811461130f57600080fd5b50565b801515811461130f57600080fd5b60008060006060848603121561133557600080fd5b833592506020840135611347816112ed565b9150604084013561135781611312565b809150509250925092565b6000806040838503121561137557600080fd5b50508035926020909101359150565b60008060006060848603121561139957600080fd5b8335925060208401359150604084013561135781611312565b600080604083850312156113c557600080fd5b8235915060208301356113d7816112ed565b809150509250929050565b6000602082840312156113f457600080fd5b81356113ff816112ed565b9392505050565b7f4e487b7100000000000000000000000000000000000000000000000000000000600052601160045260246000fd5b80820180821115610c5d57610c5d611406565b7f4e487b7100000000000000000000000000000000000000000000000000000000600052603260045260246000fd5b8082028115828204841417610c5d57610c5d611406565b6000826114c4577f4e487b7100000000000000000000000000000000000000000000000000000000600052601260045260246000fd5b500490565b81810381811115610c5d57610c5d611406565b6000602082840312156114ee57600080fd5b81516113ff81611312565b60006020828403121561150b57600080fd5b5051919050565b60007fffffffffffffffffffffffffffffffffffffffffffffffffffffffffffffffff820361154357611543611406565b506001019056fea164736f6c6343000814000a","opcodes":"PUSH1 0x80 PUSH1 0x40 MSTORE PUSH1 0x0 PUSH1 0x4 SSTORE CALLVALUE DUP1 ISZERO PUSH2 0x15 JUMPI PUSH1 0x0 DUP1 REVERT JUMPDEST POP PUSH1 0x40 MLOAD PUSH2 0x1614 CODESIZE SUB DUP1 PUSH2 0x1614 DUP4 CODECOPY DUP2 ADD PUSH1 0x40 DUP2 SWAP1 MSTORE PUSH2 0x34 SWAP2 PUSH2 0x6B JUMP JUMPDEST PUSH1 0x0 DUP1 SLOAD PUSH1 0x1 PUSH1 0x1 PUSH1 0xA0 SHL SUB SWAP1 SWAP5 AND PUSH1 0x1 PUSH1 0x1 PUSH1 0xA0 SHL SUB NOT SWAP5 DUP6 AND OR SWAP1 SSTORE PUSH1 0x1 SWAP2 SWAP1 SWAP2 SSTORE PUSH1 0x5 SSTORE PUSH1 0x6 DUP1 SLOAD SWAP1 SWAP2 AND CALLER OR SWAP1 SSTORE PUSH2 0xAE JUMP JUMPDEST PUSH1 0x0 DUP1 PUSH1 0x0 PUSH1 0x60 DUP5 DUP7 SUB SLT ISZERO PUSH2 0x80 JUMPI PUSH1 0x0 DUP1 REVERT JUMPDEST DUP4 MLOAD PUSH1 0x1 PUSH1 0x1 PUSH1 0xA0 SHL SUB DUP2 AND DUP2 EQ PUSH2 0x97 JUMPI PUSH1 0x0 DUP1 REVERT JUMPDEST PUSH1 0x20 DUP6 ADD MLOAD PUSH1 0x40 SWAP1 SWAP6 ADD MLOAD SWAP1 SWAP7 SWAP5 SWAP6 POP SWAP4 SWAP3 POP POP POP JUMP JUMPDEST PUSH2 0x1557 DUP1 PUSH2 0xBD PUSH1 0x0 CODECOPY PUSH1 0x0 RETURN INVALID PUSH1 0x80 PUSH1 0x40 MSTORE CALLVALUE DUP1 ISZERO PUSH2 0x10 JUMPI PUSH1 0x0 DUP1 REVERT JUMPDEST POP PUSH1 0x4 CALLDATASIZE LT PUSH2 0x16C JUMPI PUSH1 0x0 CALLDATALOAD PUSH1 0xE0 SHR DUP1 PUSH4 0x64482F79 GT PUSH2 0xCD JUMPI DUP1 PUSH4 0x93F1A40B GT PUSH2 0x81 JUMPI DUP1 PUSH4 0xE2BBB158 GT PUSH2 0x66 JUMPI DUP1 PUSH4 0xE2BBB158 EQ PUSH2 0x323 JUMPI DUP1 PUSH4 0xF2FDE38B EQ PUSH2 0x336 JUMPI DUP1 PUSH4 0xF7C618C1 EQ PUSH2 0x349 JUMPI PUSH1 0x0 DUP1 REVERT JUMPDEST DUP1 PUSH4 0x93F1A40B EQ PUSH2 0x2C9 JUMPI DUP1 PUSH4 0x98969E82 EQ PUSH2 0x310 JUMPI PUSH1 0x0 DUP1 REVERT JUMPDEST DUP1 PUSH4 0x8AE39CAC GT PUSH2 0xB2 JUMPI DUP1 PUSH4 0x8AE39CAC EQ PUSH2 0x268 JUMPI DUP1 PUSH4 0x8DA5CB5B EQ PUSH2 0x271 JUMPI DUP1 PUSH4 0x8DBB1E3A EQ PUSH2 0x2B6 JUMPI PUSH1 0x0 DUP1 REVERT JUMPDEST DUP1 PUSH4 0x64482F79 EQ PUSH2 0x24D JUMPI DUP1 PUSH4 0x8AA28550 EQ PUSH2 0x260 JUMPI PUSH1 0x0 DUP1 REVERT JUMPDEST DUP1 PUSH4 0x441A3E70 GT PUSH2 0x124 JUMPI DUP1 PUSH4 0x51EB05A6 GT PUSH2 0x109 JUMPI DUP1 PUSH4 0x51EB05A6 EQ PUSH2 0x21F JUMPI DUP1 PUSH4 0x5312EA8E EQ PUSH2 0x232 JUMPI DUP1 PUSH4 0x630B5BA1 EQ PUSH2 0x245 JUMPI PUSH1 0x0 DUP1 REVERT JUMPDEST DUP1 PUSH4 0x441A3E70 EQ PUSH2 0x203 JUMPI DUP1 PUSH4 0x48CD4CB1 EQ PUSH2 0x216 JUMPI PUSH1 0x0 DUP1 REVERT JUMPDEST DUP1 PUSH4 0x1526FE27 GT PUSH2 0x155 JUMPI DUP1 PUSH4 0x1526FE27 EQ PUSH2 0x19D JUMPI DUP1 PUSH4 0x17CAF6F1 EQ PUSH2 0x1E7 JUMPI DUP1 PUSH4 0x1EAAA045 EQ PUSH2 0x1F0 JUMPI PUSH1 0x0 DUP1 REVERT JUMPDEST DUP1 PUSH4 0x1F8A976 EQ PUSH2 0x171 JUMPI DUP1 PUSH4 0x81E3EDA EQ PUSH2 0x186 JUMPI JUMPDEST PUSH1 0x0 DUP1 REVERT JUMPDEST PUSH2 0x184 PUSH2 0x17F CALLDATASIZE PUSH1 0x4 PUSH2 0x12D4 JUMP JUMPDEST PUSH2 0x369 JUMP JUMPDEST STOP JUMPDEST PUSH1 0x2 SLOAD JUMPDEST PUSH1 0x40 MLOAD SWAP1 DUP2 MSTORE PUSH1 0x20 ADD JUMPDEST PUSH1 0x40 MLOAD DUP1 SWAP2 SUB SWAP1 RETURN JUMPDEST PUSH2 0x1B0 PUSH2 0x1AB CALLDATASIZE PUSH1 0x4 PUSH2 0x12D4 JUMP JUMPDEST PUSH2 0x422 JUMP JUMPDEST PUSH1 0x40 DUP1 MLOAD PUSH20 0xFFFFFFFFFFFFFFFFFFFFFFFFFFFFFFFFFFFFFFFF SWAP1 SWAP6 AND DUP6 MSTORE PUSH1 0x20 DUP6 ADD SWAP4 SWAP1 SWAP4 MSTORE SWAP2 DUP4 ADD MSTORE PUSH1 0x60 DUP3 ADD MSTORE PUSH1 0x80 ADD PUSH2 0x194 JUMP JUMPDEST PUSH2 0x18A PUSH1 0x4 SLOAD DUP2 JUMP JUMPDEST PUSH2 0x184 PUSH2 0x1FE CALLDATASIZE PUSH1 0x4 PUSH2 0x1320 JUMP JUMPDEST PUSH2 0x473 JUMP JUMPDEST PUSH2 0x184 PUSH2 0x211 CALLDATASIZE PUSH1 0x4 PUSH2 0x1362 JUMP JUMPDEST PUSH2 0x664 JUMP JUMPDEST PUSH2 0x18A PUSH1 0x5 SLOAD DUP2 JUMP JUMPDEST PUSH2 0x184 PUSH2 0x22D CALLDATASIZE PUSH1 0x4 PUSH2 0x12D4 JUMP JUMPDEST PUSH2 0x871 JUMP JUMPDEST PUSH2 0x184 PUSH2 0x240 CALLDATASIZE PUSH1 0x4 PUSH2 0x12D4 JUMP JUMPDEST PUSH2 0x9CA JUMP JUMPDEST PUSH2 0x184 PUSH2 0xAF1 JUMP JUMPDEST PUSH2 0x184 PUSH2 0x25B CALLDATASIZE PUSH1 0x4 PUSH2 0x1384 JUMP JUMPDEST PUSH2 0xB1C JUMP JUMPDEST PUSH2 0x18A PUSH1 0x1 DUP2 JUMP JUMPDEST PUSH2 0x18A PUSH1 0x1 SLOAD DUP2 JUMP JUMPDEST PUSH1 0x6 SLOAD PUSH2 0x291 SWAP1 PUSH20 0xFFFFFFFFFFFFFFFFFFFFFFFFFFFFFFFFFFFFFFFF AND DUP2 JUMP JUMPDEST PUSH1 0x40 MLOAD PUSH20 0xFFFFFFFFFFFFFFFFFFFFFFFFFFFFFFFFFFFFFFFF SWAP1 SWAP2 AND DUP2 MSTORE PUSH1 0x20 ADD PUSH2 0x194 JUMP JUMPDEST PUSH2 0x18A PUSH2 0x2C4 CALLDATASIZE PUSH1 0x4 PUSH2 0x1362 JUMP JUMPDEST PUSH2 0xC42 JUMP JUMPDEST PUSH2 0x2FB PUSH2 0x2D7 CALLDATASIZE PUSH1 0x4 PUSH2 0x13B2 JUMP JUMPDEST PUSH1 0x3 PUSH1 0x20 SWAP1 DUP2 MSTORE PUSH1 0x0 SWAP3 DUP4 MSTORE PUSH1 0x40 DUP1 DUP5 KECCAK256 SWAP1 SWAP2 MSTORE SWAP1 DUP3 MSTORE SWAP1 KECCAK256 DUP1 SLOAD PUSH1 0x1 SWAP1 SWAP2 ADD SLOAD DUP3 JUMP JUMPDEST PUSH1 0x40 DUP1 MLOAD SWAP3 DUP4 MSTORE PUSH1 0x20 DUP4 ADD SWAP2 SWAP1 SWAP2 MSTORE ADD PUSH2 0x194 JUMP JUMPDEST PUSH2 0x18A PUSH2 0x31E CALLDATASIZE PUSH1 0x4 PUSH2 0x13B2 JUMP JUMPDEST PUSH2 0xC63 JUMP JUMPDEST PUSH2 0x184 PUSH2 0x331 CALLDATASIZE PUSH1 0x4 PUSH2 0x1362 JUMP JUMPDEST PUSH2 0xDFC JUMP JUMPDEST PUSH2 0x184 PUSH2 0x344 CALLDATASIZE PUSH1 0x4 PUSH2 0x13E2 JUMP JUMPDEST PUSH2 0xFA3 JUMP JUMPDEST PUSH1 0x0 SLOAD PUSH2 0x291 SWAP1 PUSH20 0xFFFFFFFFFFFFFFFFFFFFFFFFFFFFFFFFFFFFFFFF AND DUP2 JUMP JUMPDEST PUSH1 0x6 SLOAD PUSH20 0xFFFFFFFFFFFFFFFFFFFFFFFFFFFFFFFFFFFFFFFF AND CALLER EQ PUSH2 0x415 JUMPI PUSH1 0x40 MLOAD PUSH32 0x8C379A000000000000000000000000000000000000000000000000000000000 DUP2 MSTORE PUSH1 0x20 PUSH1 0x4 DUP3 ADD MSTORE PUSH1 0x23 PUSH1 0x24 DUP3 ADD MSTORE PUSH32 0x4D6173746572436865663A2063616C6C6572206973206E6F7420746865206F77 PUSH1 0x44 DUP3 ADD MSTORE PUSH32 0x6E65720000000000000000000000000000000000000000000000000000000000 PUSH1 0x64 DUP3 ADD MSTORE PUSH1 0x84 ADD JUMPDEST PUSH1 0x40 MLOAD DUP1 SWAP2 SUB SWAP1 REVERT JUMPDEST PUSH2 0x41D PUSH2 0xAF1 JUMP JUMPDEST PUSH1 0x1 SSTORE JUMP JUMPDEST PUSH1 0x2 DUP2 DUP2 SLOAD DUP2 LT PUSH2 0x432 JUMPI PUSH1 0x0 DUP1 REVERT JUMPDEST PUSH1 0x0 SWAP2 DUP3 MSTORE PUSH1 0x20 SWAP1 SWAP2 KECCAK256 PUSH1 0x4 SWAP1 SWAP2 MUL ADD DUP1 SLOAD PUSH1 0x1 DUP3 ADD SLOAD PUSH1 0x2 DUP4 ADD SLOAD PUSH1 0x3 SWAP1 SWAP4 ADD SLOAD PUSH20 0xFFFFFFFFFFFFFFFFFFFFFFFFFFFFFFFFFFFFFFFF SWAP1 SWAP3 AND SWAP4 POP SWAP2 SWAP1 DUP5 JUMP JUMPDEST PUSH1 0x6 SLOAD PUSH20 0xFFFFFFFFFFFFFFFFFFFFFFFFFFFFFFFFFFFFFFFF AND CALLER EQ PUSH2 0x51A JUMPI PUSH1 0x40 MLOAD PUSH32 0x8C379A000000000000000000000000000000000000000000000000000000000 DUP2 MSTORE PUSH1 0x20 PUSH1 0x4 DUP3 ADD MSTORE PUSH1 0x23 PUSH1 0x24 DUP3 ADD MSTORE PUSH32 0x4D6173746572436865663A2063616C6C6572206973206E6F7420746865206F77 PUSH1 0x44 DUP3 ADD MSTORE PUSH32 0x6E65720000000000000000000000000000000000000000000000000000000000 PUSH1 0x64 DUP3 ADD MSTORE PUSH1 0x84 ADD PUSH2 0x40C JUMP JUMPDEST DUP1 ISZERO PUSH2 0x528 JUMPI PUSH2 0x528 PUSH2 0xAF1 JUMP JUMPDEST PUSH1 0x0 PUSH1 0x5 SLOAD NUMBER GT PUSH2 0x53B JUMPI PUSH1 0x5 SLOAD PUSH2 0x53D JUMP JUMPDEST NUMBER JUMPDEST SWAP1 POP DUP4 PUSH1 0x4 SLOAD PUSH2 0x54D SWAP2 SWAP1 PUSH2 0x1435 JUMP JUMPDEST PUSH1 0x4 SWAP1 DUP2 SSTORE PUSH1 0x40 DUP1 MLOAD PUSH1 0x80 DUP2 ADD DUP3 MSTORE PUSH20 0xFFFFFFFFFFFFFFFFFFFFFFFFFFFFFFFFFFFFFFFF SWAP6 DUP7 AND DUP2 MSTORE PUSH1 0x20 DUP2 ADD SWAP7 DUP8 MSTORE SWAP1 DUP2 ADD SWAP3 DUP4 MSTORE PUSH1 0x0 PUSH1 0x60 DUP3 ADD DUP2 DUP2 MSTORE PUSH1 0x2 DUP1 SLOAD PUSH1 0x1 DUP2 ADD DUP3 SSTORE SWAP3 MSTORE SWAP2 MLOAD SWAP3 MUL PUSH32 0x405787FA12A823E0F2B7631CC41B3BA8828B3321CA811111FA75CD3AA3BB5ACE DUP2 ADD DUP1 SLOAD SWAP4 SWAP1 SWAP7 AND PUSH32 0xFFFFFFFFFFFFFFFFFFFFFFFF0000000000000000000000000000000000000000 SWAP1 SWAP4 AND SWAP3 SWAP1 SWAP3 OR SWAP1 SWAP5 SSTORE SWAP4 MLOAD PUSH32 0x405787FA12A823E0F2B7631CC41B3BA8828B3321CA811111FA75CD3AA3BB5ACF DUP6 ADD SSTORE MLOAD PUSH32 0x405787FA12A823E0F2B7631CC41B3BA8828B3321CA811111FA75CD3AA3BB5AD0 DUP5 ADD SSTORE POP MLOAD PUSH32 0x405787FA12A823E0F2B7631CC41B3BA8828B3321CA811111FA75CD3AA3BB5AD1 SWAP1 SWAP2 ADD SSTORE JUMP JUMPDEST PUSH1 0x0 PUSH1 0x2 DUP4 DUP2 SLOAD DUP2 LT PUSH2 0x679 JUMPI PUSH2 0x679 PUSH2 0x1448 JUMP JUMPDEST PUSH1 0x0 SWAP2 DUP3 MSTORE PUSH1 0x20 DUP1 DUP4 KECCAK256 DUP7 DUP5 MSTORE PUSH1 0x3 DUP3 MSTORE PUSH1 0x40 DUP1 DUP6 KECCAK256 CALLER DUP7 MSTORE SWAP1 SWAP3 MSTORE SWAP3 KECCAK256 DUP1 SLOAD PUSH1 0x4 SWAP1 SWAP3 MUL SWAP1 SWAP3 ADD SWAP3 POP DUP4 GT ISZERO PUSH2 0x70C JUMPI PUSH1 0x40 MLOAD PUSH32 0x8C379A000000000000000000000000000000000000000000000000000000000 DUP2 MSTORE PUSH1 0x20 PUSH1 0x4 DUP3 ADD MSTORE PUSH1 0x12 PUSH1 0x24 DUP3 ADD MSTORE PUSH32 0x77697468647261773A206E6F7420676F6F640000000000000000000000000000 PUSH1 0x44 DUP3 ADD MSTORE PUSH1 0x64 ADD PUSH2 0x40C JUMP JUMPDEST PUSH2 0x715 DUP5 PUSH2 0x871 JUMP JUMPDEST PUSH1 0x0 DUP2 PUSH1 0x1 ADD SLOAD PUSH5 0xE8D4A51000 DUP5 PUSH1 0x3 ADD SLOAD DUP5 PUSH1 0x0 ADD SLOAD PUSH2 0x736 SWAP2 SWAP1 PUSH2 0x1477 JUMP JUMPDEST PUSH2 0x740 SWAP2 SWAP1 PUSH2 0x148E JUMP JUMPDEST PUSH2 0x74A SWAP2 SWAP1 PUSH2 0x14C9 JUMP JUMPDEST SWAP1 POP DUP1 ISZERO PUSH2 0x75C JUMPI PUSH2 0x75C CALLER DUP3 PUSH2 0x1134 JUMP JUMPDEST DUP4 ISZERO PUSH2 0x80D JUMPI DUP2 SLOAD PUSH2 0x76F SWAP1 DUP6 SWAP1 PUSH2 0x14C9 JUMP JUMPDEST DUP3 SSTORE DUP3 SLOAD PUSH1 0x40 MLOAD PUSH32 0xA9059CBB00000000000000000000000000000000000000000000000000000000 DUP2 MSTORE CALLER PUSH1 0x4 DUP3 ADD MSTORE PUSH1 0x24 DUP2 ADD DUP7 SWAP1 MSTORE PUSH20 0xFFFFFFFFFFFFFFFFFFFFFFFFFFFFFFFFFFFFFFFF SWAP1 SWAP2 AND SWAP1 PUSH4 0xA9059CBB SWAP1 PUSH1 0x44 ADD PUSH1 0x20 PUSH1 0x40 MLOAD DUP1 DUP4 SUB DUP2 PUSH1 0x0 DUP8 GAS CALL ISZERO DUP1 ISZERO PUSH2 0x7E7 JUMPI RETURNDATASIZE PUSH1 0x0 DUP1 RETURNDATACOPY RETURNDATASIZE PUSH1 0x0 REVERT JUMPDEST POP POP POP POP PUSH1 0x40 MLOAD RETURNDATASIZE PUSH1 0x1F NOT PUSH1 0x1F DUP3 ADD AND DUP3 ADD DUP1 PUSH1 0x40 MSTORE POP DUP2 ADD SWAP1 PUSH2 0x80B SWAP2 SWAP1 PUSH2 0x14DC JUMP JUMPDEST POP JUMPDEST PUSH1 0x3 DUP4 ADD SLOAD DUP3 SLOAD PUSH5 0xE8D4A51000 SWAP2 PUSH2 0x824 SWAP2 PUSH2 0x1477 JUMP JUMPDEST PUSH2 0x82E SWAP2 SWAP1 PUSH2 0x148E JUMP JUMPDEST PUSH1 0x1 DUP4 ADD SSTORE PUSH1 0x40 MLOAD DUP5 DUP2 MSTORE DUP6 SWAP1 CALLER SWAP1 PUSH32 0xF279E6A1F5E320CCA91135676D9CB6E44CA8A08C0B88342BCDB1144F6511B568 SWAP1 PUSH1 0x20 ADD PUSH1 0x40 MLOAD DUP1 SWAP2 SUB SWAP1 LOG3 POP POP POP POP POP JUMP JUMPDEST PUSH1 0x0 PUSH1 0x2 DUP3 DUP2 SLOAD DUP2 LT PUSH2 0x886 JUMPI PUSH2 0x886 PUSH2 0x1448 JUMP JUMPDEST SWAP1 PUSH1 0x0 MSTORE PUSH1 0x20 PUSH1 0x0 KECCAK256 SWAP1 PUSH1 0x4 MUL ADD SWAP1 POP DUP1 PUSH1 0x2 ADD SLOAD NUMBER GT PUSH2 0x8A5 JUMPI POP POP JUMP JUMPDEST DUP1 SLOAD PUSH1 0x40 MLOAD PUSH32 0x70A0823100000000000000000000000000000000000000000000000000000000 DUP2 MSTORE ADDRESS PUSH1 0x4 DUP3 ADD MSTORE PUSH1 0x0 SWAP2 PUSH20 0xFFFFFFFFFFFFFFFFFFFFFFFFFFFFFFFFFFFFFFFF AND SWAP1 PUSH4 0x70A08231 SWAP1 PUSH1 0x24 ADD PUSH1 0x20 PUSH1 0x40 MLOAD DUP1 DUP4 SUB DUP2 DUP7 GAS STATICCALL ISZERO DUP1 ISZERO PUSH2 0x913 JUMPI RETURNDATASIZE PUSH1 0x0 DUP1 RETURNDATACOPY RETURNDATASIZE PUSH1 0x0 REVERT JUMPDEST POP POP POP POP PUSH1 0x40 MLOAD RETURNDATASIZE PUSH1 0x1F NOT PUSH1 0x1F DUP3 ADD AND DUP3 ADD DUP1 PUSH1 0x40 MSTORE POP DUP2 ADD SWAP1 PUSH2 0x937 SWAP2 SWAP1 PUSH2 0x14F9 JUMP JUMPDEST SWAP1 POP DUP1 PUSH1 0x0 SUB PUSH2 0x94C JUMPI POP NUMBER PUSH1 0x2 SWAP1 SWAP2 ADD SSTORE POP JUMP JUMPDEST PUSH1 0x0 PUSH2 0x95C DUP4 PUSH1 0x2 ADD SLOAD NUMBER PUSH2 0xC42 JUMP JUMPDEST SWAP1 POP PUSH1 0x0 PUSH1 0x4 SLOAD DUP5 PUSH1 0x1 ADD SLOAD PUSH1 0x1 SLOAD DUP5 PUSH2 0x976 SWAP2 SWAP1 PUSH2 0x1477 JUMP JUMPDEST PUSH2 0x980 SWAP2 SWAP1 PUSH2 0x1477 JUMP JUMPDEST PUSH2 0x98A SWAP2 SWAP1 PUSH2 0x148E JUMP JUMPDEST SWAP1 POP DUP3 PUSH2 0x99C DUP3 PUSH5 0xE8D4A51000 PUSH2 0x1477 JUMP JUMPDEST PUSH2 0x9A6 SWAP2 SWAP1 PUSH2 0x148E JUMP JUMPDEST DUP5 PUSH1 0x3 ADD SLOAD PUSH2 0x9B5 SWAP2 SWAP1 PUSH2 0x1435 JUMP JUMPDEST PUSH1 0x3 DUP6 ADD SSTORE POP POP NUMBER PUSH1 0x2 SWAP1 SWAP3 ADD SWAP2 SWAP1 SWAP2 SSTORE POP POP JUMP JUMPDEST PUSH1 0x0 PUSH1 0x2 DUP3 DUP2 SLOAD DUP2 LT PUSH2 0x9DF JUMPI PUSH2 0x9DF PUSH2 0x1448 JUMP JUMPDEST PUSH1 0x0 SWAP2 DUP3 MSTORE PUSH1 0x20 DUP1 DUP4 KECCAK256 DUP6 DUP5 MSTORE PUSH1 0x3 DUP3 MSTORE PUSH1 0x40 DUP1 DUP6 KECCAK256 CALLER DUP1 DUP8 MSTORE SWAP4 MSTORE DUP1 DUP6 KECCAK256 DUP1 SLOAD DUP7 DUP3 SSTORE PUSH1 0x1 DUP3 ADD SWAP7 SWAP1 SWAP7 SSTORE PUSH1 0x4 SWAP5 DUP6 MUL SWAP1 SWAP3 ADD DUP1 SLOAD SWAP2 MLOAD PUSH32 0xA9059CBB00000000000000000000000000000000000000000000000000000000 DUP2 MSTORE SWAP5 DUP6 ADD SWAP4 SWAP1 SWAP4 MSTORE PUSH1 0x24 DUP5 ADD DUP6 SWAP1 MSTORE SWAP2 SWAP5 POP SWAP3 SWAP2 PUSH20 0xFFFFFFFFFFFFFFFFFFFFFFFFFFFFFFFFFFFFFFFF SWAP1 SWAP2 AND SWAP1 PUSH4 0xA9059CBB SWAP1 PUSH1 0x44 ADD PUSH1 0x20 PUSH1 0x40 MLOAD DUP1 DUP4 SUB DUP2 PUSH1 0x0 DUP8 GAS CALL ISZERO DUP1 ISZERO PUSH2 0xA8E JUMPI RETURNDATASIZE PUSH1 0x0 DUP1 RETURNDATACOPY RETURNDATASIZE PUSH1 0x0 REVERT JUMPDEST POP POP POP POP PUSH1 0x40 MLOAD RETURNDATASIZE PUSH1 0x1F NOT PUSH1 0x1F DUP3 ADD AND DUP3 ADD DUP1 PUSH1 0x40 MSTORE POP DUP2 ADD SWAP1 PUSH2 0xAB2 SWAP2 SWAP1 PUSH2 0x14DC JUMP JUMPDEST POP PUSH1 0x40 MLOAD DUP2 DUP2 MSTORE DUP5 SWAP1 CALLER SWAP1 PUSH32 0xBB757047C2B5F3974FE26B7C10F732E7BCE710B0952A71082702781E62AE0595 SWAP1 PUSH1 0x20 ADD JUMPDEST PUSH1 0x40 MLOAD DUP1 SWAP2 SUB SWAP1 LOG3 POP POP POP POP JUMP JUMPDEST PUSH1 0x2 SLOAD PUSH1 0x0 JUMPDEST DUP2 DUP2 LT ISZERO PUSH2 0xB18 JUMPI PUSH2 0xB08 DUP2 PUSH2 0x871 JUMP JUMPDEST PUSH2 0xB11 DUP2 PUSH2 0x1512 JUMP JUMPDEST SWAP1 POP PUSH2 0xAF7 JUMP JUMPDEST POP POP JUMP JUMPDEST PUSH1 0x6 SLOAD PUSH20 0xFFFFFFFFFFFFFFFFFFFFFFFFFFFFFFFFFFFFFFFF AND CALLER EQ PUSH2 0xBC3 JUMPI PUSH1 0x40 MLOAD PUSH32 0x8C379A000000000000000000000000000000000000000000000000000000000 DUP2 MSTORE PUSH1 0x20 PUSH1 0x4 DUP3 ADD MSTORE PUSH1 0x23 PUSH1 0x24 DUP3 ADD MSTORE PUSH32 0x4D6173746572436865663A2063616C6C6572206973206E6F7420746865206F77 PUSH1 0x44 DUP3 ADD MSTORE PUSH32 0x6E65720000000000000000000000000000000000000000000000000000000000 PUSH1 0x64 DUP3 ADD MSTORE PUSH1 0x84 ADD PUSH2 0x40C JUMP JUMPDEST DUP1 ISZERO PUSH2 0xBD1 JUMPI PUSH2 0xBD1 PUSH2 0xAF1 JUMP JUMPDEST DUP2 PUSH1 0x2 DUP5 DUP2 SLOAD DUP2 LT PUSH2 0xBE5 JUMPI PUSH2 0xBE5 PUSH2 0x1448 JUMP JUMPDEST SWAP1 PUSH1 0x0 MSTORE PUSH1 0x20 PUSH1 0x0 KECCAK256 SWAP1 PUSH1 0x4 MUL ADD PUSH1 0x1 ADD SLOAD PUSH1 0x4 SLOAD PUSH2 0xC04 SWAP2 SWAP1 PUSH2 0x14C9 JUMP JUMPDEST PUSH2 0xC0E SWAP2 SWAP1 PUSH2 0x1435 JUMP JUMPDEST PUSH1 0x4 DUP2 SWAP1 SSTORE POP DUP2 PUSH1 0x2 DUP5 DUP2 SLOAD DUP2 LT PUSH2 0xC28 JUMPI PUSH2 0xC28 PUSH2 0x1448 JUMP JUMPDEST SWAP1 PUSH1 0x0 MSTORE PUSH1 0x20 PUSH1 0x0 KECCAK256 SWAP1 PUSH1 0x4 MUL ADD PUSH1 0x1 ADD DUP2 SWAP1 SSTORE POP POP POP POP JUMP JUMPDEST PUSH1 0x0 PUSH1 0x1 PUSH2 0xC50 DUP5 DUP5 PUSH2 0x14C9 JUMP JUMPDEST PUSH2 0xC5A SWAP2 SWAP1 PUSH2 0x1477 JUMP JUMPDEST SWAP1 POP JUMPDEST SWAP3 SWAP2 POP POP JUMP JUMPDEST PUSH1 0x0 DUP1 PUSH1 0x2 DUP5 DUP2 SLOAD DUP2 LT PUSH2 0xC79 JUMPI PUSH2 0xC79 PUSH2 0x1448 JUMP JUMPDEST PUSH1 0x0 SWAP2 DUP3 MSTORE PUSH1 0x20 DUP1 DUP4 KECCAK256 DUP8 DUP5 MSTORE PUSH1 0x3 DUP1 DUP4 MSTORE PUSH1 0x40 DUP1 DUP7 KECCAK256 PUSH20 0xFFFFFFFFFFFFFFFFFFFFFFFFFFFFFFFFFFFFFFFF DUP11 DUP2 AND DUP9 MSTORE SWAP5 MSTORE DUP1 DUP7 KECCAK256 PUSH1 0x4 SWAP6 DUP7 MUL SWAP1 SWAP4 ADD SWAP2 DUP3 ADD SLOAD DUP3 SLOAD SWAP2 MLOAD PUSH32 0x70A0823100000000000000000000000000000000000000000000000000000000 DUP2 MSTORE ADDRESS SWAP7 DUP2 ADD SWAP7 SWAP1 SWAP7 MSTORE SWAP2 SWAP7 POP SWAP2 SWAP5 SWAP1 SWAP4 SWAP1 SWAP3 SWAP2 SWAP1 SWAP2 AND SWAP1 PUSH4 0x70A08231 SWAP1 PUSH1 0x24 ADD PUSH1 0x20 PUSH1 0x40 MLOAD DUP1 DUP4 SUB DUP2 DUP7 GAS STATICCALL ISZERO DUP1 ISZERO PUSH2 0xD1E JUMPI RETURNDATASIZE PUSH1 0x0 DUP1 RETURNDATACOPY RETURNDATASIZE PUSH1 0x0 REVERT JUMPDEST POP POP POP POP PUSH1 0x40 MLOAD RETURNDATASIZE PUSH1 0x1F NOT PUSH1 0x1F DUP3 ADD AND DUP3 ADD DUP1 PUSH1 0x40 MSTORE POP DUP2 ADD SWAP1 PUSH2 0xD42 SWAP2 SWAP1 PUSH2 0x14F9 JUMP JUMPDEST SWAP1 POP DUP4 PUSH1 0x2 ADD SLOAD NUMBER GT DUP1 ISZERO PUSH2 0xD56 JUMPI POP DUP1 ISZERO ISZERO JUMPDEST ISZERO PUSH2 0xDC4 JUMPI PUSH1 0x0 PUSH2 0xD6B DUP6 PUSH1 0x2 ADD SLOAD NUMBER PUSH2 0xC42 JUMP JUMPDEST SWAP1 POP PUSH1 0x0 PUSH1 0x4 SLOAD DUP7 PUSH1 0x1 ADD SLOAD PUSH1 0x1 SLOAD DUP5 PUSH2 0xD85 SWAP2 SWAP1 PUSH2 0x1477 JUMP JUMPDEST PUSH2 0xD8F SWAP2 SWAP1 PUSH2 0x1477 JUMP JUMPDEST PUSH2 0xD99 SWAP2 SWAP1 PUSH2 0x148E JUMP JUMPDEST SWAP1 POP DUP3 PUSH2 0xDAB DUP3 PUSH5 0xE8D4A51000 PUSH2 0x1477 JUMP JUMPDEST PUSH2 0xDB5 SWAP2 SWAP1 PUSH2 0x148E JUMP JUMPDEST PUSH2 0xDBF SWAP1 DUP6 PUSH2 0x1435 JUMP JUMPDEST SWAP4 POP POP POP JUMPDEST PUSH1 0x1 DUP4 ADD SLOAD DUP4 SLOAD PUSH5 0xE8D4A51000 SWAP1 PUSH2 0xDDD SWAP1 DUP6 SWAP1 PUSH2 0x1477 JUMP JUMPDEST PUSH2 0xDE7 SWAP2 SWAP1 PUSH2 0x148E JUMP JUMPDEST PUSH2 0xDF1 SWAP2 SWAP1 PUSH2 0x14C9 JUMP JUMPDEST SWAP8 SWAP7 POP POP POP POP POP POP POP JUMP JUMPDEST PUSH1 0x0 PUSH1 0x2 DUP4 DUP2 SLOAD DUP2 LT PUSH2 0xE11 JUMPI PUSH2 0xE11 PUSH2 0x1448 JUMP JUMPDEST PUSH1 0x0 SWAP2 DUP3 MSTORE PUSH1 0x20 DUP1 DUP4 KECCAK256 DUP7 DUP5 MSTORE PUSH1 0x3 DUP3 MSTORE PUSH1 0x40 DUP1 DUP6 KECCAK256 CALLER DUP7 MSTORE SWAP1 SWAP3 MSTORE SWAP3 KECCAK256 PUSH1 0x4 SWAP1 SWAP2 MUL SWAP1 SWAP2 ADD SWAP2 POP PUSH2 0xE42 DUP5 PUSH2 0x871 JUMP JUMPDEST DUP1 SLOAD ISZERO PUSH2 0xE92 JUMPI PUSH1 0x0 DUP2 PUSH1 0x1 ADD SLOAD PUSH5 0xE8D4A51000 DUP5 PUSH1 0x3 ADD SLOAD DUP5 PUSH1 0x0 ADD SLOAD PUSH2 0xE6A SWAP2 SWAP1 PUSH2 0x1477 JUMP JUMPDEST PUSH2 0xE74 SWAP2 SWAP1 PUSH2 0x148E JUMP JUMPDEST PUSH2 0xE7E SWAP2 SWAP1 PUSH2 0x14C9 JUMP JUMPDEST SWAP1 POP DUP1 ISZERO PUSH2 0xE90 JUMPI PUSH2 0xE90 CALLER DUP3 PUSH2 0x1134 JUMP JUMPDEST POP JUMPDEST DUP3 ISZERO PUSH2 0xF49 JUMPI DUP2 SLOAD PUSH1 0x40 MLOAD PUSH32 0x23B872DD00000000000000000000000000000000000000000000000000000000 DUP2 MSTORE CALLER PUSH1 0x4 DUP3 ADD MSTORE ADDRESS PUSH1 0x24 DUP3 ADD MSTORE PUSH1 0x44 DUP2 ADD DUP6 SWAP1 MSTORE PUSH20 0xFFFFFFFFFFFFFFFFFFFFFFFFFFFFFFFFFFFFFFFF SWAP1 SWAP2 AND SWAP1 PUSH4 0x23B872DD SWAP1 PUSH1 0x64 ADD PUSH1 0x20 PUSH1 0x40 MLOAD DUP1 DUP4 SUB DUP2 PUSH1 0x0 DUP8 GAS CALL ISZERO DUP1 ISZERO PUSH2 0xF14 JUMPI RETURNDATASIZE PUSH1 0x0 DUP1 RETURNDATACOPY RETURNDATASIZE PUSH1 0x0 REVERT JUMPDEST POP POP POP POP PUSH1 0x40 MLOAD RETURNDATASIZE PUSH1 0x1F NOT PUSH1 0x1F DUP3 ADD AND DUP3 ADD DUP1 PUSH1 0x40 MSTORE POP DUP2 ADD SWAP1 PUSH2 0xF38 SWAP2 SWAP1 PUSH2 0x14DC JUMP JUMPDEST POP DUP1 SLOAD PUSH2 0xF46 SWAP1 DUP5 SWAP1 PUSH2 0x1435 JUMP JUMPDEST DUP2 SSTORE JUMPDEST PUSH1 0x3 DUP3 ADD SLOAD DUP2 SLOAD PUSH5 0xE8D4A51000 SWAP2 PUSH2 0xF60 SWAP2 PUSH2 0x1477 JUMP JUMPDEST PUSH2 0xF6A SWAP2 SWAP1 PUSH2 0x148E JUMP JUMPDEST PUSH1 0x1 DUP3 ADD SSTORE PUSH1 0x40 MLOAD DUP4 DUP2 MSTORE DUP5 SWAP1 CALLER SWAP1 PUSH32 0x90890809C654F11D6E72A28FA60149770A0D11EC6C92319D6CEB2BB0A4EA1A15 SWAP1 PUSH1 0x20 ADD PUSH2 0xAE3 JUMP JUMPDEST PUSH1 0x6 SLOAD PUSH20 0xFFFFFFFFFFFFFFFFFFFFFFFFFFFFFFFFFFFFFFFF AND CALLER EQ PUSH2 0x104A JUMPI PUSH1 0x40 MLOAD PUSH32 0x8C379A000000000000000000000000000000000000000000000000000000000 DUP2 MSTORE PUSH1 0x20 PUSH1 0x4 DUP3 ADD MSTORE PUSH1 0x23 PUSH1 0x24 DUP3 ADD MSTORE PUSH32 0x4D6173746572436865663A2063616C6C6572206973206E6F7420746865206F77 PUSH1 0x44 DUP3 ADD MSTORE PUSH32 0x6E65720000000000000000000000000000000000000000000000000000000000 PUSH1 0x64 DUP3 ADD MSTORE PUSH1 0x84 ADD PUSH2 0x40C JUMP JUMPDEST PUSH20 0xFFFFFFFFFFFFFFFFFFFFFFFFFFFFFFFFFFFFFFFF DUP2 AND PUSH2 0x10ED JUMPI PUSH1 0x40 MLOAD PUSH32 0x8C379A000000000000000000000000000000000000000000000000000000000 DUP2 MSTORE PUSH1 0x20 PUSH1 0x4 DUP3 ADD MSTORE PUSH1 0x29 PUSH1 0x24 DUP3 ADD MSTORE PUSH32 0x4D6173746572436865663A206E6577206F776E657220697320746865207A6572 PUSH1 0x44 DUP3 ADD MSTORE PUSH32 0x6F20616464726573730000000000000000000000000000000000000000000000 PUSH1 0x64 DUP3 ADD MSTORE PUSH1 0x84 ADD PUSH2 0x40C JUMP JUMPDEST PUSH1 0x6 DUP1 SLOAD PUSH32 0xFFFFFFFFFFFFFFFFFFFFFFFF0000000000000000000000000000000000000000 AND PUSH20 0xFFFFFFFFFFFFFFFFFFFFFFFFFFFFFFFFFFFFFFFF SWAP3 SWAP1 SWAP3 AND SWAP2 SWAP1 SWAP2 OR SWAP1 SSTORE JUMP JUMPDEST PUSH1 0x0 DUP1 SLOAD PUSH1 0x40 MLOAD PUSH32 0x70A0823100000000000000000000000000000000000000000000000000000000 DUP2 MSTORE ADDRESS PUSH1 0x4 DUP3 ADD MSTORE PUSH20 0xFFFFFFFFFFFFFFFFFFFFFFFFFFFFFFFFFFFFFFFF SWAP1 SWAP2 AND SWAP1 PUSH4 0x70A08231 SWAP1 PUSH1 0x24 ADD PUSH1 0x20 PUSH1 0x40 MLOAD DUP1 DUP4 SUB DUP2 DUP7 GAS STATICCALL ISZERO DUP1 ISZERO PUSH2 0x11A3 JUMPI RETURNDATASIZE PUSH1 0x0 DUP1 RETURNDATACOPY RETURNDATASIZE PUSH1 0x0 REVERT JUMPDEST POP POP POP POP PUSH1 0x40 MLOAD RETURNDATASIZE PUSH1 0x1F NOT PUSH1 0x1F DUP3 ADD AND DUP3 ADD DUP1 PUSH1 0x40 MSTORE POP DUP2 ADD SWAP1 PUSH2 0x11C7 SWAP2 SWAP1 PUSH2 0x14F9 JUMP JUMPDEST SWAP1 POP DUP1 DUP3 GT ISZERO PUSH2 0x1275 JUMPI PUSH1 0x0 SLOAD PUSH1 0x40 MLOAD PUSH32 0xA9059CBB00000000000000000000000000000000000000000000000000000000 DUP2 MSTORE PUSH20 0xFFFFFFFFFFFFFFFFFFFFFFFFFFFFFFFFFFFFFFFF DUP6 DUP2 AND PUSH1 0x4 DUP4 ADD MSTORE PUSH1 0x24 DUP3 ADD DUP5 SWAP1 MSTORE SWAP1 SWAP2 AND SWAP1 PUSH4 0xA9059CBB SWAP1 PUSH1 0x44 ADD JUMPDEST PUSH1 0x20 PUSH1 0x40 MLOAD DUP1 DUP4 SUB DUP2 PUSH1 0x0 DUP8 GAS CALL ISZERO DUP1 ISZERO PUSH2 0x124B JUMPI RETURNDATASIZE PUSH1 0x0 DUP1 RETURNDATACOPY RETURNDATASIZE PUSH1 0x0 REVERT JUMPDEST POP POP POP POP PUSH1 0x40 MLOAD RETURNDATASIZE PUSH1 0x1F NOT PUSH1 0x1F DUP3 ADD AND DUP3 ADD DUP1 PUSH1 0x40 MSTORE POP DUP2 ADD SWAP1 PUSH2 0x126F SWAP2 SWAP1 PUSH2 0x14DC JUMP JUMPDEST POP POP POP POP JUMP JUMPDEST PUSH1 0x0 SLOAD PUSH1 0x40 MLOAD PUSH32 0xA9059CBB00000000000000000000000000000000000000000000000000000000 DUP2 MSTORE PUSH20 0xFFFFFFFFFFFFFFFFFFFFFFFFFFFFFFFFFFFFFFFF DUP6 DUP2 AND PUSH1 0x4 DUP4 ADD MSTORE PUSH1 0x24 DUP3 ADD DUP6 SWAP1 MSTORE SWAP1 SWAP2 AND SWAP1 PUSH4 0xA9059CBB SWAP1 PUSH1 0x44 ADD PUSH2 0x122C JUMP JUMPDEST PUSH1 0x0 PUSH1 0x20 DUP3 DUP5 SUB SLT ISZERO PUSH2 0x12E6 JUMPI PUSH1 0x0 DUP1 REVERT JUMPDEST POP CALLDATALOAD SWAP2 SWAP1 POP JUMP JUMPDEST PUSH20 0xFFFFFFFFFFFFFFFFFFFFFFFFFFFFFFFFFFFFFFFF DUP2 AND DUP2 EQ PUSH2 0x130F JUMPI PUSH1 0x0 DUP1 REVERT JUMPDEST POP JUMP JUMPDEST DUP1 ISZERO ISZERO DUP2 EQ PUSH2 0x130F JUMPI PUSH1 0x0 DUP1 REVERT JUMPDEST PUSH1 0x0 DUP1 PUSH1 0x0 PUSH1 0x60 DUP5 DUP7 SUB SLT ISZERO PUSH2 0x1335 JUMPI PUSH1 0x0 DUP1 REVERT JUMPDEST DUP4 CALLDATALOAD SWAP3 POP PUSH1 0x20 DUP5 ADD CALLDATALOAD PUSH2 0x1347 DUP2 PUSH2 0x12ED JUMP JUMPDEST SWAP2 POP PUSH1 0x40 DUP5 ADD CALLDATALOAD PUSH2 0x1357 DUP2 PUSH2 0x1312 JUMP JUMPDEST DUP1 SWAP2 POP POP SWAP3 POP SWAP3 POP SWAP3 JUMP JUMPDEST PUSH1 0x0 DUP1 PUSH1 0x40 DUP4 DUP6 SUB SLT ISZERO PUSH2 0x1375 JUMPI PUSH1 0x0 DUP1 REVERT JUMPDEST POP POP DUP1 CALLDATALOAD SWAP3 PUSH1 0x20 SWAP1 SWAP2 ADD CALLDATALOAD SWAP2 POP JUMP JUMPDEST PUSH1 0x0 DUP1 PUSH1 0x0 PUSH1 0x60 DUP5 DUP7 SUB SLT ISZERO PUSH2 0x1399 JUMPI PUSH1 0x0 DUP1 REVERT JUMPDEST DUP4 CALLDATALOAD SWAP3 POP PUSH1 0x20 DUP5 ADD CALLDATALOAD SWAP2 POP PUSH1 0x40 DUP5 ADD CALLDATALOAD PUSH2 0x1357 DUP2 PUSH2 0x1312 JUMP JUMPDEST PUSH1 0x0 DUP1 PUSH1 0x40 DUP4 DUP6 SUB SLT ISZERO PUSH2 0x13C5 JUMPI PUSH1 0x0 DUP1 REVERT JUMPDEST DUP3 CALLDATALOAD SWAP2 POP PUSH1 0x20 DUP4 ADD CALLDATALOAD PUSH2 0x13D7 DUP2 PUSH2 0x12ED JUMP JUMPDEST DUP1 SWAP2 POP POP SWAP3 POP SWAP3 SWAP1 POP JUMP JUMPDEST PUSH1 0x0 PUSH1 0x20 DUP3 DUP5 SUB SLT ISZERO PUSH2 0x13F4 JUMPI PUSH1 0x0 DUP1 REVERT JUMPDEST DUP2 CALLDATALOAD PUSH2 0x13FF DUP2 PUSH2 0x12ED JUMP JUMPDEST SWAP4 SWAP3 POP POP POP JUMP JUMPDEST PUSH32 0x4E487B7100000000000000000000000000000000000000000000000000000000 PUSH1 0x0 MSTORE PUSH1 0x11 PUSH1 0x4 MSTORE PUSH1 0x24 PUSH1 0x0 REVERT JUMPDEST DUP1 DUP3 ADD DUP1 DUP3 GT ISZERO PUSH2 0xC5D JUMPI PUSH2 0xC5D PUSH2 0x1406 JUMP JUMPDEST PUSH32 0x4E487B7100000000000000000000000000000000000000000000000000000000 PUSH1 0x0 MSTORE PUSH1 0x32 PUSH1 0x4 MSTORE PUSH1 0x24 PUSH1 0x0 REVERT JUMPDEST DUP1 DUP3 MUL DUP2 ISZERO DUP3 DUP3 DIV DUP5 EQ OR PUSH2 0xC5D JUMPI PUSH2 0xC5D PUSH2 0x1406 JUMP JUMPDEST PUSH1 0x0 DUP3 PUSH2 0x14C4 JUMPI PUSH32 0x4E487B7100000000000000000000000000000000000000000000000000000000 PUSH1 0x0 MSTORE PUSH1 0x12 PUSH1 0x4 MSTORE PUSH1 0x24 PUSH1 0x0 REVERT JUMPDEST POP DIV SWAP1 JUMP JUMPDEST DUP2 DUP2 SUB DUP2 DUP2 GT ISZERO PUSH2 0xC5D JUMPI PUSH2 0xC5D PUSH2 0x1406 JUMP JUMPDEST PUSH1 0x0 PUSH1 0x20 DUP3 DUP5 SUB SLT ISZERO PUSH2 0x14EE JUMPI PUSH1 0x0 DUP1 REVERT JUMPDEST DUP2 MLOAD PUSH2 0x13FF DUP2 PUSH2 0x1312 JUMP JUMPDEST PUSH1 0x0 PUSH1 0x20 DUP3 DUP5 SUB SLT ISZERO PUSH2 0x150B JUMPI PUSH1 0x0 DUP1 REVERT JUMPDEST POP MLOAD SWAP2 SWAP1 POP JUMP JUMPDEST PUSH1 0x0 PUSH32 0xFFFFFFFFFFFFFFFFFFFFFFFFFFFFFFFFFFFFFFFFFFFFFFFFFFFFFFFFFFFFFFFF DUP3 SUB PUSH2 0x1543 JUMPI PUSH2 0x1543 PUSH2 0x1406 JUMP JUMPDEST POP PUSH1 0x1 ADD SWAP1 JUMP INVALID LOG1 PUSH5 0x736F6C6343 STOP ADDMOD EQ STOP EXP "},"methodIdentifiers":{"BONUS_MULTIPLIER()":"8aa28550","add(uint256,address,bool)":"1eaaa045","deposit(uint256,uint256)":"e2bbb158","emergencyWithdraw(uint256)":"5312ea8e","getMultiplier(uint256,uint256)":"8dbb1e3a","massUpdatePools()":"630b5ba1","owner()":"8da5cb5b","pendingReward(uint256,address)":"98969e82","poolInfo(uint256)":"1526fe27","poolLength()":"081e3eda","rewardPerBlock()":"8ae39cac","rewardToken()":"f7c618c1","set(uint256,uint256,bool)":"64482f79","startBlock()":"48cd4cb1","totalAllocPoint()":"17caf6f1","transferOwnership(address)":"f2fde38b","updatePool(uint256)":"51eb05a6","updateRewardPerBlock(uint256)":"01f8a976","userInfo(uint256,address)":"93f1a40b","withdraw(uint256,uint256)":"441a3e70"}}}}}